{
  "_format": "hh-sol-artifact-1",
  "contractName": "REY_NFT",
  "sourceName": "contracts/erc721_collection.sol",
  "abi": [
    {
      "inputs": [
        {
          "internalType": "string",
          "name": "_name",
          "type": "string"
        },
        {
          "internalType": "string",
          "name": "_symbol",
          "type": "string"
        }
      ],
      "stateMutability": "nonpayable",
      "type": "constructor"
    },
    {
      "anonymous": false,
      "inputs": [
        {
          "indexed": true,
          "internalType": "address",
          "name": "owner",
          "type": "address"
        },
        {
          "indexed": true,
          "internalType": "address",
          "name": "approved",
          "type": "address"
        },
        {
          "indexed": true,
          "internalType": "uint256",
          "name": "tokenId",
          "type": "uint256"
        }
      ],
      "name": "Approval",
      "type": "event"
    },
    {
      "anonymous": false,
      "inputs": [
        {
          "indexed": true,
          "internalType": "address",
          "name": "owner",
          "type": "address"
        },
        {
          "indexed": true,
          "internalType": "address",
          "name": "operator",
          "type": "address"
        },
        {
          "indexed": false,
          "internalType": "bool",
          "name": "approved",
          "type": "bool"
        }
      ],
      "name": "ApprovalForAll",
      "type": "event"
    },
    {
      "anonymous": false,
      "inputs": [
        {
          "indexed": true,
          "internalType": "address",
          "name": "previousOwner",
          "type": "address"
        },
        {
          "indexed": true,
          "internalType": "address",
          "name": "newOwner",
          "type": "address"
        }
      ],
      "name": "OwnershipTransferred",
      "type": "event"
    },
    {
      "anonymous": false,
      "inputs": [
        {
          "indexed": true,
          "internalType": "address",
          "name": "from",
          "type": "address"
        },
        {
          "indexed": true,
          "internalType": "address",
          "name": "to",
          "type": "address"
        },
        {
          "indexed": true,
          "internalType": "uint256",
          "name": "tokenId",
          "type": "uint256"
        }
      ],
      "name": "Transfer",
      "type": "event"
    },
    {
      "inputs": [
        {
          "internalType": "address",
          "name": "to",
          "type": "address"
        },
        {
          "internalType": "uint256",
          "name": "tokenId",
          "type": "uint256"
        }
      ],
      "name": "approve",
      "outputs": [],
      "stateMutability": "nonpayable",
      "type": "function"
    },
    {
      "inputs": [
        {
          "internalType": "address",
          "name": "owner",
          "type": "address"
        }
      ],
      "name": "balanceOf",
      "outputs": [
        {
          "internalType": "uint256",
          "name": "",
          "type": "uint256"
        }
      ],
      "stateMutability": "view",
      "type": "function"
    },
    {
      "inputs": [
        {
          "internalType": "uint256",
          "name": "tokenId",
          "type": "uint256"
        }
      ],
      "name": "getApproved",
      "outputs": [
        {
          "internalType": "address",
          "name": "",
          "type": "address"
        }
      ],
      "stateMutability": "view",
      "type": "function"
    },
    {
      "inputs": [
        {
          "internalType": "address",
          "name": "owner",
          "type": "address"
        },
        {
          "internalType": "address",
          "name": "operator",
          "type": "address"
        }
      ],
      "name": "isApprovedForAll",
      "outputs": [
        {
          "internalType": "bool",
          "name": "",
          "type": "bool"
        }
      ],
      "stateMutability": "view",
      "type": "function"
    },
    {
      "inputs": [],
      "name": "kycTokenContract",
      "outputs": [
        {
          "internalType": "address",
          "name": "",
          "type": "address"
        }
      ],
      "stateMutability": "view",
      "type": "function"
    },
    {
      "inputs": [
        {
          "internalType": "uint256",
          "name": "_amount",
          "type": "uint256"
        }
      ],
      "name": "mint",
      "outputs": [],
      "stateMutability": "payable",
      "type": "function"
    },
    {
      "inputs": [],
      "name": "mintPrice",
      "outputs": [
        {
          "internalType": "uint256",
          "name": "",
          "type": "uint256"
        }
      ],
      "stateMutability": "view",
      "type": "function"
    },
    {
      "inputs": [],
      "name": "name",
      "outputs": [
        {
          "internalType": "string",
          "name": "",
          "type": "string"
        }
      ],
      "stateMutability": "view",
      "type": "function"
    },
    {
      "inputs": [],
      "name": "owner",
      "outputs": [
        {
          "internalType": "address",
          "name": "",
          "type": "address"
        }
      ],
      "stateMutability": "view",
      "type": "function"
    },
    {
      "inputs": [
        {
          "internalType": "uint256",
          "name": "tokenId",
          "type": "uint256"
        }
      ],
      "name": "ownerOf",
      "outputs": [
        {
          "internalType": "address",
          "name": "",
          "type": "address"
        }
      ],
      "stateMutability": "view",
      "type": "function"
    },
    {
      "inputs": [],
      "name": "paymentToken",
      "outputs": [
        {
          "internalType": "address",
          "name": "",
          "type": "address"
        }
      ],
      "stateMutability": "view",
      "type": "function"
    },
    {
      "inputs": [],
      "name": "renounceOwnership",
      "outputs": [],
      "stateMutability": "nonpayable",
      "type": "function"
    },
    {
      "inputs": [
        {
          "internalType": "address",
          "name": "from",
          "type": "address"
        },
        {
          "internalType": "address",
          "name": "to",
          "type": "address"
        },
        {
          "internalType": "uint256",
          "name": "tokenId",
          "type": "uint256"
        }
      ],
      "name": "safeTransferFrom",
      "outputs": [],
      "stateMutability": "nonpayable",
      "type": "function"
    },
    {
      "inputs": [
        {
          "internalType": "address",
          "name": "from",
          "type": "address"
        },
        {
          "internalType": "address",
          "name": "to",
          "type": "address"
        },
        {
          "internalType": "uint256",
          "name": "tokenId",
          "type": "uint256"
        },
        {
          "internalType": "bytes",
          "name": "data",
          "type": "bytes"
        }
      ],
      "name": "safeTransferFrom",
      "outputs": [],
      "stateMutability": "nonpayable",
      "type": "function"
    },
    {
      "inputs": [
        {
          "internalType": "address",
          "name": "_token",
          "type": "address"
        }
      ],
      "name": "setAcceptedToken",
      "outputs": [],
      "stateMutability": "nonpayable",
      "type": "function"
    },
    {
      "inputs": [
        {
          "internalType": "address",
          "name": "operator",
          "type": "address"
        },
        {
          "internalType": "bool",
          "name": "approved",
          "type": "bool"
        }
      ],
      "name": "setApprovalForAll",
      "outputs": [],
      "stateMutability": "nonpayable",
      "type": "function"
    },
    {
      "inputs": [
        {
          "internalType": "address",
          "name": "_tokenAdd",
          "type": "address"
        }
      ],
      "name": "setKycTokenContract",
      "outputs": [],
      "stateMutability": "nonpayable",
      "type": "function"
    },
    {
      "inputs": [
        {
          "internalType": "uint256",
          "name": "_price",
          "type": "uint256"
        }
      ],
      "name": "setMintPrice",
      "outputs": [],
      "stateMutability": "nonpayable",
      "type": "function"
    },
    {
      "inputs": [
        {
          "internalType": "address",
          "name": "_stakingContract",
          "type": "address"
        }
      ],
      "name": "setStakingContract",
      "outputs": [],
      "stateMutability": "nonpayable",
      "type": "function"
    },
    {
      "inputs": [],
      "name": "stakingContract",
      "outputs": [
        {
          "internalType": "address",
          "name": "",
          "type": "address"
        }
      ],
      "stateMutability": "view",
      "type": "function"
    },
    {
      "inputs": [
        {
          "internalType": "bytes4",
          "name": "interfaceId",
          "type": "bytes4"
        }
      ],
      "name": "supportsInterface",
      "outputs": [
        {
          "internalType": "bool",
          "name": "",
          "type": "bool"
        }
      ],
      "stateMutability": "view",
      "type": "function"
    },
    {
      "inputs": [],
      "name": "symbol",
      "outputs": [
        {
          "internalType": "string",
          "name": "",
          "type": "string"
        }
      ],
      "stateMutability": "view",
      "type": "function"
    },
    {
      "inputs": [
        {
          "internalType": "uint256",
          "name": "index",
          "type": "uint256"
        }
      ],
      "name": "tokenByIndex",
      "outputs": [
        {
          "internalType": "uint256",
          "name": "",
          "type": "uint256"
        }
      ],
      "stateMutability": "view",
      "type": "function"
    },
    {
      "inputs": [
        {
          "internalType": "address",
          "name": "owner",
          "type": "address"
        },
        {
          "internalType": "uint256",
          "name": "index",
          "type": "uint256"
        }
      ],
      "name": "tokenOfOwnerByIndex",
      "outputs": [
        {
          "internalType": "uint256",
          "name": "",
          "type": "uint256"
        }
      ],
      "stateMutability": "view",
      "type": "function"
    },
    {
      "inputs": [
        {
          "internalType": "uint256",
          "name": "tokenId",
          "type": "uint256"
        }
      ],
      "name": "tokenURI",
      "outputs": [
        {
          "internalType": "string",
          "name": "",
          "type": "string"
        }
      ],
      "stateMutability": "view",
      "type": "function"
    },
    {
      "inputs": [
        {
          "internalType": "address",
          "name": "_owner",
          "type": "address"
        }
      ],
      "name": "tokensOfOwner",
      "outputs": [
        {
          "internalType": "uint256[]",
          "name": "",
          "type": "uint256[]"
        }
      ],
      "stateMutability": "view",
      "type": "function"
    },
    {
      "inputs": [],
      "name": "totalSupply",
      "outputs": [
        {
          "internalType": "uint256",
          "name": "",
          "type": "uint256"
        }
      ],
      "stateMutability": "view",
      "type": "function"
    },
    {
      "inputs": [
        {
          "internalType": "address",
          "name": "from",
          "type": "address"
        },
        {
          "internalType": "address",
          "name": "to",
          "type": "address"
        },
        {
          "internalType": "uint256",
          "name": "tokenId",
          "type": "uint256"
        }
      ],
      "name": "transferFrom",
      "outputs": [],
      "stateMutability": "nonpayable",
      "type": "function"
    },
    {
      "inputs": [
        {
          "internalType": "address",
          "name": "newOwner",
          "type": "address"
        }
      ],
      "name": "transferOwnership",
      "outputs": [],
      "stateMutability": "nonpayable",
      "type": "function"
    },
    {
      "inputs": [],
      "name": "withdraw",
      "outputs": [],
      "stateMutability": "nonpayable",
      "type": "function"
    }
  ],
  "bytecode": "0x6080604052600a600b556000600c60006101000a81548173ffffffffffffffffffffffffffffffffffffffff021916908373ffffffffffffffffffffffffffffffffffffffff1602179055506000600d60006101000a81548173ffffffffffffffffffffffffffffffffffffffff021916908373ffffffffffffffffffffffffffffffffffffffff1602179055506000600e60006101000a81548173ffffffffffffffffffffffffffffffffffffffff021916908373ffffffffffffffffffffffffffffffffffffffff160217905550670de0b6b3a7640000600f55348015620000e857600080fd5b506040516200460b3803806200460b83398181016040528101906200010e91906200035c565b81818160009080519060200190620001289291906200023a565b508060019080519060200190620001419291906200023a565b50505062000164620001586200016c60201b60201c565b6200017460201b60201c565b50506200053f565b600033905090565b6000600a60009054906101000a900473ffffffffffffffffffffffffffffffffffffffff16905081600a60006101000a81548173ffffffffffffffffffffffffffffffffffffffff021916908373ffffffffffffffffffffffffffffffffffffffff1602179055508173ffffffffffffffffffffffffffffffffffffffff168173ffffffffffffffffffffffffffffffffffffffff167f8be0079c531659141344cd1fd0a4f28419497f9722a3daafe3b4186f6b6457e060405160405180910390a35050565b828054620002489062000464565b90600052602060002090601f0160209004810192826200026c5760008555620002b8565b82601f106200028757805160ff1916838001178555620002b8565b82800160010185558215620002b8579182015b82811115620002b75782518255916020019190600101906200029a565b5b509050620002c79190620002cb565b5090565b5b80821115620002e6576000816000905550600101620002cc565b5090565b600062000301620002fb84620003f8565b620003cf565b9050828152602081018484840111156200031a57600080fd5b620003278482856200042e565b509392505050565b600082601f8301126200034157600080fd5b815162000353848260208601620002ea565b91505092915050565b600080604083850312156200037057600080fd5b600083015167ffffffffffffffff8111156200038b57600080fd5b62000399858286016200032f565b925050602083015167ffffffffffffffff811115620003b757600080fd5b620003c5858286016200032f565b9150509250929050565b6000620003db620003ee565b9050620003e982826200049a565b919050565b6000604051905090565b600067ffffffffffffffff821115620004165762000415620004ff565b5b62000421826200052e565b9050602081019050919050565b60005b838110156200044e57808201518184015260208101905062000431565b838111156200045e576000848401525b50505050565b600060028204905060018216806200047d57607f821691505b60208210811415620004945762000493620004d0565b5b50919050565b620004a5826200052e565b810181811067ffffffffffffffff82111715620004c757620004c6620004ff565b5b80604052505050565b7f4e487b7100000000000000000000000000000000000000000000000000000000600052602260045260246000fd5b7f4e487b7100000000000000000000000000000000000000000000000000000000600052604160045260246000fd5b6000601f19601f8301169050919050565b6140bc806200054f6000396000f3fe6080604052600436106101cd5760003560e01c8063715018a6116100f7578063a22cb46511610095578063e985e9c511610064578063e985e9c514610679578063ee99205c146106b6578063f2fde38b146106e1578063f4a0a5281461070a576101cd565b8063a22cb465146105bf578063b88d4fde146105e8578063c87b56dd14610611578063cda75ad31461064e576101cd565b80638da5cb5b116100d15780638da5cb5b1461052457806395d89b411461054f5780639dd373b91461057a578063a0712d68146105a3576101cd565b8063715018a6146104a75780637487f528146104be5780638462151c146104e7576101cd565b80632f745c591161016f5780634f6ccce71161013e5780634f6ccce7146103c55780636352211e146104025780636817c76c1461043f57806370a082311461046a576101cd565b80632f745c591461031d5780633013ce291461035a5780633ccfd60b1461038557806342842e0e1461039c576101cd565b8063095ea7b3116101ab578063095ea7b3146102775780630bdd1370146102a057806318160ddd146102c957806323b872dd146102f4576101cd565b806301ffc9a7146101d257806306fdde031461020f578063081812fc1461023a575b600080fd5b3480156101de57600080fd5b506101f960048036038101906101f49190612e99565b610733565b604051610206919061345b565b60405180910390f35b34801561021b57600080fd5b50610224610745565b6040516102319190613476565b60405180910390f35b34801561024657600080fd5b50610261600480360381019061025c9190612eeb565b6107d7565b60405161026e9190613372565b60405180910390f35b34801561028357600080fd5b5061029e60048036038101906102999190612e34565b61081d565b005b3480156102ac57600080fd5b506102c760048036038101906102c29190612cc9565b610935565b005b3480156102d557600080fd5b506102de610981565b6040516102eb9190613718565b60405180910390f35b34801561030057600080fd5b5061031b60048036038101906103169190612d2e565b61098e565b005b34801561032957600080fd5b50610344600480360381019061033f9190612e34565b6109ee565b6040516103519190613718565b60405180910390f35b34801561036657600080fd5b5061036f610a93565b60405161037c9190613372565b60405180910390f35b34801561039157600080fd5b5061039a610ab9565b005b3480156103a857600080fd5b506103c360048036038101906103be9190612d2e565b610c2b565b005b3480156103d157600080fd5b506103ec60048036038101906103e79190612eeb565b610c4b565b6040516103f99190613718565b60405180910390f35b34801561040e57600080fd5b5061042960048036038101906104249190612eeb565b610ce2565b6040516104369190613372565b60405180910390f35b34801561044b57600080fd5b50610454610d94565b6040516104619190613718565b60405180910390f35b34801561047657600080fd5b50610491600480360381019061048c9190612cc9565b610d9a565b60405161049e9190613718565b60405180910390f35b3480156104b357600080fd5b506104bc610e52565b005b3480156104ca57600080fd5b506104e560048036038101906104e09190612cc9565b610e66565b005b3480156104f357600080fd5b5061050e60048036038101906105099190612cc9565b610eb2565b60405161051b9190613439565b60405180910390f35b34801561053057600080fd5b50610539610faa565b6040516105469190613372565b60405180910390f35b34801561055b57600080fd5b50610564610fd4565b6040516105719190613476565b60405180910390f35b34801561058657600080fd5b506105a1600480360381019061059c9190612cc9565b611066565b005b6105bd60048036038101906105b89190612eeb565b6110b2565b005b3480156105cb57600080fd5b506105e660048036038101906105e19190612df8565b6113f3565b005b3480156105f457600080fd5b5061060f600480360381019061060a9190612d7d565b611409565b005b34801561061d57600080fd5b5061063860048036038101906106339190612eeb565b61146b565b6040516106459190613476565b60405180910390f35b34801561065a57600080fd5b506106636114d3565b6040516106709190613372565b60405180910390f35b34801561068557600080fd5b506106a0600480360381019061069b9190612cf2565b6114f9565b6040516106ad919061345b565b60405180910390f35b3480156106c257600080fd5b506106cb61158d565b6040516106d89190613372565b60405180910390f35b3480156106ed57600080fd5b5061070860048036038101906107039190612cc9565b6115b3565b005b34801561071657600080fd5b50610731600480360381019061072c9190612eeb565b611637565b005b600061073e82611649565b9050919050565b606060008054610754906139d0565b80601f0160208091040260200160405190810160405280929190818152602001828054610780906139d0565b80156107cd5780601f106107a2576101008083540402835291602001916107cd565b820191906000526020600020905b8154815290600101906020018083116107b057829003601f168201915b5050505050905090565b60006107e2826116c3565b6004600083815260200190815260200160002060009054906101000a900473ffffffffffffffffffffffffffffffffffffffff169050919050565b600061082882610ce2565b90508073ffffffffffffffffffffffffffffffffffffffff168373ffffffffffffffffffffffffffffffffffffffff161415610899576040517f08c379a000000000000000000000000000000000000000000000000000000000815260040161089090613698565b60405180910390fd5b8073ffffffffffffffffffffffffffffffffffffffff166108b861170e565b73ffffffffffffffffffffffffffffffffffffffff1614806108e757506108e6816108e161170e565b6114f9565b5b610926576040517f08c379a000000000000000000000000000000000000000000000000000000000815260040161091d90613618565b60405180910390fd5b6109308383611716565b505050565b61093d6117cf565b80600d60006101000a81548173ffffffffffffffffffffffffffffffffffffffff021916908373ffffffffffffffffffffffffffffffffffffffff16021790555050565b6000600880549050905090565b61099f61099961170e565b8261184d565b6109de576040517f08c379a00000000000000000000000000000000000000000000000000000000081526004016109d5906136f8565b60405180910390fd5b6109e98383836118e2565b505050565b60006109f983610d9a565b8210610a3a576040517f08c379a0000000000000000000000000000000000000000000000000000000008152600401610a31906134b8565b60405180910390fd5b600660008473ffffffffffffffffffffffffffffffffffffffff1673ffffffffffffffffffffffffffffffffffffffff168152602001908152602001600020600083815260200190815260200160002054905092915050565b600c60009054906101000a900473ffffffffffffffffffffffffffffffffffffffff1681565b610ac16117cf565b6000600c60009054906101000a900473ffffffffffffffffffffffffffffffffffffffff1673ffffffffffffffffffffffffffffffffffffffff1663a9059cbb33600c60009054906101000a900473ffffffffffffffffffffffffffffffffffffffff1673ffffffffffffffffffffffffffffffffffffffff166370a08231306040518263ffffffff1660e01b8152600401610b5d9190613372565b60206040518083038186803b158015610b7557600080fd5b505afa158015610b89573d6000803e3d6000fd5b505050506040513d601f19601f82011682018060405250810190610bad9190612f14565b6040518363ffffffff1660e01b8152600401610bca929190613410565b602060405180830381600087803b158015610be457600080fd5b505af1158015610bf8573d6000803e3d6000fd5b505050506040513d601f19601f82011682018060405250810190610c1c9190612e70565b905080610c2857600080fd5b50565b610c4683838360405180602001604052806000815250611409565b505050565b6000610c55610981565b8210610c96576040517f08c379a0000000000000000000000000000000000000000000000000000000008152600401610c8d906136b8565b60405180910390fd5b60088281548110610cd0577f4e487b7100000000000000000000000000000000000000000000000000000000600052603260045260246000fd5b90600052602060002001549050919050565b6000806002600084815260200190815260200160002060009054906101000a900473ffffffffffffffffffffffffffffffffffffffff169050600073ffffffffffffffffffffffffffffffffffffffff168173ffffffffffffffffffffffffffffffffffffffff161415610d8b576040517f08c379a0000000000000000000000000000000000000000000000000000000008152600401610d8290613678565b60405180910390fd5b80915050919050565b600f5481565b60008073ffffffffffffffffffffffffffffffffffffffff168273ffffffffffffffffffffffffffffffffffffffff161415610e0b576040517f08c379a0000000000000000000000000000000000000000000000000000000008152600401610e02906135f8565b60405180910390fd5b600360008373ffffffffffffffffffffffffffffffffffffffff1673ffffffffffffffffffffffffffffffffffffffff168152602001908152602001600020549050919050565b610e5a6117cf565b610e646000611b49565b565b610e6e6117cf565b80600c60006101000a81548173ffffffffffffffffffffffffffffffffffffffff021916908373ffffffffffffffffffffffffffffffffffffffff16021790555050565b60606000610ebf83610d9a565b905060008167ffffffffffffffff811115610f03577f4e487b7100000000000000000000000000000000000000000000000000000000600052604160045260246000fd5b604051908082528060200260200182016040528015610f315781602001602082028036833780820191505090505b50905060005b82811015610f9f57610f4985826109ee565b828281518110610f82577f4e487b7100000000000000000000000000000000000000000000000000000000600052603260045260246000fd5b60200260200101818152505080610f9890613a33565b9050610f37565b508092505050919050565b6000600a60009054906101000a900473ffffffffffffffffffffffffffffffffffffffff16905090565b606060018054610fe3906139d0565b80601f016020809104026020016040519081016040528092919081815260200182805461100f906139d0565b801561105c5780601f106110315761010080835404028352916020019161105c565b820191906000526020600020905b81548152906001019060200180831161103f57829003601f168201915b5050505050905090565b61106e6117cf565b80600e60006101000a81548173ffffffffffffffffffffffffffffffffffffffff021916908373ffffffffffffffffffffffffffffffffffffffff16021790555050565b33600e60009054906101000a900473ffffffffffffffffffffffffffffffffffffffff1673ffffffffffffffffffffffffffffffffffffffff168173ffffffffffffffffffffffffffffffffffffffff1614611143576040517f08c379a000000000000000000000000000000000000000000000000000000000815260040161113a906134d8565b60405180910390fd5b6000600d60009054906101000a900473ffffffffffffffffffffffffffffffffffffffff1673ffffffffffffffffffffffffffffffffffffffff166370a08231836040518263ffffffff1660e01b81526004016111a09190613372565b60206040518083038186803b1580156111b857600080fd5b505afa1580156111cc573d6000803e3d6000fd5b505050506040513d601f19601f820116820180604052508101906111f09190612f14565b11611230576040517f08c379a000000000000000000000000000000000000000000000000000000000815260040161122790613518565b60405180910390fd5b600b548261123e6010611c0f565b6112489190613805565b1115611289576040517f08c379a0000000000000000000000000000000000000000000000000000000008152600401611280906136d8565b60405180910390fd5b670de0b6b3a76400006103e8836112a0919061388c565b6112aa919061388c565b34146112eb576040517f08c379a00000000000000000000000000000000000000000000000000000000081526004016112e2906135d8565b60405180910390fd5b60005b828110156113ee576000600c60009054906101000a900473ffffffffffffffffffffffffffffffffffffffff1673ffffffffffffffffffffffffffffffffffffffff166323b872dd3330600f546040518463ffffffff1660e01b81526004016113599392919061338d565b602060405180830381600087803b15801561137357600080fd5b505af1158015611387573d6000803e3d6000fd5b505050506040513d601f19601f820116820180604052508101906113ab9190612e70565b9050806113b757600080fd5b6113c16010611c1d565b60006113cd6010611c0f565b90506113d93382611c33565b505080806113e690613a33565b9150506112ee565b505050565b6114056113fe61170e565b8383611c51565b5050565b61141a61141461170e565b8361184d565b611459576040517f08c379a0000000000000000000000000000000000000000000000000000000008152600401611450906136f8565b60405180910390fd5b61146584848484611dbe565b50505050565b6060611476826116c3565b6000611480611e1a565b905060008151116114a057604051806020016040528060008152506114cb565b806114aa84611e31565b6040516020016114bb92919061334e565b6040516020818303038152906040525b915050919050565b600d60009054906101000a900473ffffffffffffffffffffffffffffffffffffffff1681565b6000600560008473ffffffffffffffffffffffffffffffffffffffff1673ffffffffffffffffffffffffffffffffffffffff16815260200190815260200160002060008373ffffffffffffffffffffffffffffffffffffffff1673ffffffffffffffffffffffffffffffffffffffff16815260200190815260200160002060009054906101000a900460ff16905092915050565b600e60009054906101000a900473ffffffffffffffffffffffffffffffffffffffff1681565b6115bb6117cf565b600073ffffffffffffffffffffffffffffffffffffffff168173ffffffffffffffffffffffffffffffffffffffff16141561162b576040517f08c379a000000000000000000000000000000000000000000000000000000000815260040161162290613538565b60405180910390fd5b61163481611b49565b50565b61163f6117cf565b80600f8190555050565b60007f780e9d63000000000000000000000000000000000000000000000000000000007bffffffffffffffffffffffffffffffffffffffffffffffffffffffff1916827bffffffffffffffffffffffffffffffffffffffffffffffffffffffff191614806116bc57506116bb82611fde565b5b9050919050565b6116cc816120c0565b61170b576040517f08c379a000000000000000000000000000000000000000000000000000000000815260040161170290613678565b60405180910390fd5b50565b600033905090565b816004600083815260200190815260200160002060006101000a81548173ffffffffffffffffffffffffffffffffffffffff021916908373ffffffffffffffffffffffffffffffffffffffff160217905550808273ffffffffffffffffffffffffffffffffffffffff1661178983610ce2565b73ffffffffffffffffffffffffffffffffffffffff167f8c5be1e5ebec7d5bd14f71427d1e84f3dd0314c0f7b2291e5b200ac8c7c3b92560405160405180910390a45050565b6117d761170e565b73ffffffffffffffffffffffffffffffffffffffff166117f5610faa565b73ffffffffffffffffffffffffffffffffffffffff161461184b576040517f08c379a000000000000000000000000000000000000000000000000000000000815260040161184290613658565b60405180910390fd5b565b60008061185983610ce2565b90508073ffffffffffffffffffffffffffffffffffffffff168473ffffffffffffffffffffffffffffffffffffffff16148061189b575061189a81856114f9565b5b806118d957508373ffffffffffffffffffffffffffffffffffffffff166118c1846107d7565b73ffffffffffffffffffffffffffffffffffffffff16145b91505092915050565b8273ffffffffffffffffffffffffffffffffffffffff1661190282610ce2565b73ffffffffffffffffffffffffffffffffffffffff1614611958576040517f08c379a000000000000000000000000000000000000000000000000000000000815260040161194f90613558565b60405180910390fd5b600073ffffffffffffffffffffffffffffffffffffffff168273ffffffffffffffffffffffffffffffffffffffff1614156119c8576040517f08c379a00000000000000000000000000000000000000000000000000000000081526004016119bf90613598565b60405180910390fd5b6119d383838361212c565b6119de600082611716565b6001600360008573ffffffffffffffffffffffffffffffffffffffff1673ffffffffffffffffffffffffffffffffffffffff1681526020019081526020016000206000828254611a2e91906138e6565b925050819055506001600360008473ffffffffffffffffffffffffffffffffffffffff1673ffffffffffffffffffffffffffffffffffffffff1681526020019081526020016000206000828254611a859190613805565b92505081905550816002600083815260200190815260200160002060006101000a81548173ffffffffffffffffffffffffffffffffffffffff021916908373ffffffffffffffffffffffffffffffffffffffff160217905550808273ffffffffffffffffffffffffffffffffffffffff168473ffffffffffffffffffffffffffffffffffffffff167fddf252ad1be2c89b69c2b068fc378daa952ba7f163c4a11628f55a4df523b3ef60405160405180910390a4611b448383836122df565b505050565b6000600a60009054906101000a900473ffffffffffffffffffffffffffffffffffffffff16905081600a60006101000a81548173ffffffffffffffffffffffffffffffffffffffff021916908373ffffffffffffffffffffffffffffffffffffffff1602179055508173ffffffffffffffffffffffffffffffffffffffff168173ffffffffffffffffffffffffffffffffffffffff167f8be0079c531659141344cd1fd0a4f28419497f9722a3daafe3b4186f6b6457e060405160405180910390a35050565b600081600001549050919050565b6001816000016000828254019250508190555050565b611c4d8282604051806020016040528060008152506122e4565b5050565b8173ffffffffffffffffffffffffffffffffffffffff168373ffffffffffffffffffffffffffffffffffffffff161415611cc0576040517f08c379a0000000000000000000000000000000000000000000000000000000008152600401611cb7906135b8565b60405180910390fd5b80600560008573ffffffffffffffffffffffffffffffffffffffff1673ffffffffffffffffffffffffffffffffffffffff16815260200190815260200160002060008473ffffffffffffffffffffffffffffffffffffffff1673ffffffffffffffffffffffffffffffffffffffff16815260200190815260200160002060006101000a81548160ff0219169083151502179055508173ffffffffffffffffffffffffffffffffffffffff168373ffffffffffffffffffffffffffffffffffffffff167f17307eab39ab6107e8899845ad3d59bd9653f200f220920489ca2b5937696c3183604051611db1919061345b565b60405180910390a3505050565b611dc98484846118e2565b611dd58484848461233f565b611e14576040517f08c379a0000000000000000000000000000000000000000000000000000000008152600401611e0b906134f8565b60405180910390fd5b50505050565b606060405180602001604052806000815250905090565b60606000821415611e79576040518060400160405280600181526020017f30000000000000000000000000000000000000000000000000000000000000008152509050611fd9565b600082905060005b60008214611eab578080611e9490613a33565b915050600a82611ea4919061385b565b9150611e81565b60008167ffffffffffffffff811115611eed577f4e487b7100000000000000000000000000000000000000000000000000000000600052604160045260246000fd5b6040519080825280601f01601f191660200182016040528015611f1f5781602001600182028036833780820191505090505b5090505b60008514611fd257600182611f3891906138e6565b9150600a85611f479190613a7c565b6030611f539190613805565b60f81b818381518110611f8f577f4e487b7100000000000000000000000000000000000000000000000000000000600052603260045260246000fd5b60200101907effffffffffffffffffffffffffffffffffffffffffffffffffffffffffffff1916908160001a905350600a85611fcb919061385b565b9450611f23565b8093505050505b919050565b60007f80ac58cd000000000000000000000000000000000000000000000000000000007bffffffffffffffffffffffffffffffffffffffffffffffffffffffff1916827bffffffffffffffffffffffffffffffffffffffffffffffffffffffff191614806120a957507f5b5e139f000000000000000000000000000000000000000000000000000000007bffffffffffffffffffffffffffffffffffffffffffffffffffffffff1916827bffffffffffffffffffffffffffffffffffffffffffffffffffffffff1916145b806120b957506120b8826124d6565b5b9050919050565b60008073ffffffffffffffffffffffffffffffffffffffff166002600084815260200190815260200160002060009054906101000a900473ffffffffffffffffffffffffffffffffffffffff1673ffffffffffffffffffffffffffffffffffffffff1614159050919050565b6000600d60009054906101000a900473ffffffffffffffffffffffffffffffffffffffff1673ffffffffffffffffffffffffffffffffffffffff166370a08231856040518263ffffffff1660e01b81526004016121899190613372565b60206040518083038186803b1580156121a157600080fd5b505afa1580156121b5573d6000803e3d6000fd5b505050506040513d601f19601f820116820180604052508101906121d99190612f14565b11801561229057506000600d60009054906101000a900473ffffffffffffffffffffffffffffffffffffffff1673ffffffffffffffffffffffffffffffffffffffff166370a08231846040518263ffffffff1660e01b815260040161223e9190613372565b60206040518083038186803b15801561225657600080fd5b505afa15801561226a573d6000803e3d6000fd5b505050506040513d601f19601f8201168201806040525081019061228e9190612f14565b115b6122cf576040517f08c379a00000000000000000000000000000000000000000000000000000000081526004016122c690613498565b60405180910390fd5b6122da838383612540565b505050565b505050565b6122ee8383612654565b6122fb600084848461233f565b61233a576040517f08c379a0000000000000000000000000000000000000000000000000000000008152600401612331906134f8565b60405180910390fd5b505050565b60006123608473ffffffffffffffffffffffffffffffffffffffff1661282e565b156124c9578373ffffffffffffffffffffffffffffffffffffffff1663150b7a0261238961170e565b8786866040518563ffffffff1660e01b81526004016123ab94939291906133c4565b602060405180830381600087803b1580156123c557600080fd5b505af19250505080156123f657506040513d601f19601f820116820180604052508101906123f39190612ec2565b60015b612479573d8060008114612426576040519150601f19603f3d011682016040523d82523d6000602084013e61242b565b606091505b50600081511415612471576040517f08c379a0000000000000000000000000000000000000000000000000000000008152600401612468906134f8565b60405180910390fd5b805181602001fd5b63150b7a0260e01b7bffffffffffffffffffffffffffffffffffffffffffffffffffffffff1916817bffffffffffffffffffffffffffffffffffffffffffffffffffffffff1916149150506124ce565b600190505b949350505050565b60007f01ffc9a7000000000000000000000000000000000000000000000000000000007bffffffffffffffffffffffffffffffffffffffffffffffffffffffff1916827bffffffffffffffffffffffffffffffffffffffffffffffffffffffff1916149050919050565b61254b838383612851565b600073ffffffffffffffffffffffffffffffffffffffff168373ffffffffffffffffffffffffffffffffffffffff16141561258e5761258981612856565b6125cd565b8173ffffffffffffffffffffffffffffffffffffffff168373ffffffffffffffffffffffffffffffffffffffff16146125cc576125cb838261289f565b5b5b600073ffffffffffffffffffffffffffffffffffffffff168273ffffffffffffffffffffffffffffffffffffffff1614156126105761260b81612a0c565b61264f565b8273ffffffffffffffffffffffffffffffffffffffff168273ffffffffffffffffffffffffffffffffffffffff161461264e5761264d8282612b4f565b5b5b505050565b600073ffffffffffffffffffffffffffffffffffffffff168273ffffffffffffffffffffffffffffffffffffffff1614156126c4576040517f08c379a00000000000000000000000000000000000000000000000000000000081526004016126bb90613638565b60405180910390fd5b6126cd816120c0565b1561270d576040517f08c379a000000000000000000000000000000000000000000000000000000000815260040161270490613578565b60405180910390fd5b6127196000838361212c565b6001600360008473ffffffffffffffffffffffffffffffffffffffff1673ffffffffffffffffffffffffffffffffffffffff16815260200190815260200160002060008282546127699190613805565b92505081905550816002600083815260200190815260200160002060006101000a81548173ffffffffffffffffffffffffffffffffffffffff021916908373ffffffffffffffffffffffffffffffffffffffff160217905550808273ffffffffffffffffffffffffffffffffffffffff16600073ffffffffffffffffffffffffffffffffffffffff167fddf252ad1be2c89b69c2b068fc378daa952ba7f163c4a11628f55a4df523b3ef60405160405180910390a461282a600083836122df565b5050565b6000808273ffffffffffffffffffffffffffffffffffffffff163b119050919050565b505050565b6008805490506009600083815260200190815260200160002081905550600881908060018154018082558091505060019003906000526020600020016000909190919091505550565b600060016128ac84610d9a565b6128b691906138e6565b905060006007600084815260200190815260200160002054905081811461299b576000600660008673ffffffffffffffffffffffffffffffffffffffff1673ffffffffffffffffffffffffffffffffffffffff168152602001908152602001600020600084815260200190815260200160002054905080600660008773ffffffffffffffffffffffffffffffffffffffff1673ffffffffffffffffffffffffffffffffffffffff168152602001908152602001600020600084815260200190815260200160002081905550816007600083815260200190815260200160002081905550505b6007600084815260200190815260200160002060009055600660008573ffffffffffffffffffffffffffffffffffffffff1673ffffffffffffffffffffffffffffffffffffffff16815260200190815260200160002060008381526020019081526020016000206000905550505050565b60006001600880549050612a2091906138e6565b9050600060096000848152602001908152602001600020549050600060088381548110612a76577f4e487b7100000000000000000000000000000000000000000000000000000000600052603260045260246000fd5b906000526020600020015490508060088381548110612abe577f4e487b7100000000000000000000000000000000000000000000000000000000600052603260045260246000fd5b906000526020600020018190555081600960008381526020019081526020016000208190555060096000858152602001908152602001600020600090556008805480612b33577f4e487b7100000000000000000000000000000000000000000000000000000000600052603160045260246000fd5b6001900381819060005260206000200160009055905550505050565b6000612b5a83610d9a565b905081600660008573ffffffffffffffffffffffffffffffffffffffff1673ffffffffffffffffffffffffffffffffffffffff168152602001908152602001600020600083815260200190815260200160002081905550806007600084815260200190815260200160002081905550505050565b6000612be1612bdc84613758565b613733565b905082815260208101848484011115612bf957600080fd5b612c0484828561398e565b509392505050565b600081359050612c1b8161402a565b92915050565b600081359050612c3081614041565b92915050565b600081519050612c4581614041565b92915050565b600081359050612c5a81614058565b92915050565b600081519050612c6f81614058565b92915050565b600082601f830112612c8657600080fd5b8135612c96848260208601612bce565b91505092915050565b600081359050612cae8161406f565b92915050565b600081519050612cc38161406f565b92915050565b600060208284031215612cdb57600080fd5b6000612ce984828501612c0c565b91505092915050565b60008060408385031215612d0557600080fd5b6000612d1385828601612c0c565b9250506020612d2485828601612c0c565b9150509250929050565b600080600060608486031215612d4357600080fd5b6000612d5186828701612c0c565b9350506020612d6286828701612c0c565b9250506040612d7386828701612c9f565b9150509250925092565b60008060008060808587031215612d9357600080fd5b6000612da187828801612c0c565b9450506020612db287828801612c0c565b9350506040612dc387828801612c9f565b925050606085013567ffffffffffffffff811115612de057600080fd5b612dec87828801612c75565b91505092959194509250565b60008060408385031215612e0b57600080fd5b6000612e1985828601612c0c565b9250506020612e2a85828601612c21565b9150509250929050565b60008060408385031215612e4757600080fd5b6000612e5585828601612c0c565b9250506020612e6685828601612c9f565b9150509250929050565b600060208284031215612e8257600080fd5b6000612e9084828501612c36565b91505092915050565b600060208284031215612eab57600080fd5b6000612eb984828501612c4b565b91505092915050565b600060208284031215612ed457600080fd5b6000612ee284828501612c60565b91505092915050565b600060208284031215612efd57600080fd5b6000612f0b84828501612c9f565b91505092915050565b600060208284031215612f2657600080fd5b6000612f3484828501612cb4565b91505092915050565b6000612f498383613330565b60208301905092915050565b612f5e8161391a565b82525050565b6000612f6f82613799565b612f7981856137c7565b9350612f8483613789565b8060005b83811015612fb5578151612f9c8882612f3d565b9750612fa7836137ba565b925050600181019050612f88565b5085935050505092915050565b612fcb8161392c565b82525050565b6000612fdc826137a4565b612fe681856137d8565b9350612ff681856020860161399d565b612fff81613b69565b840191505092915050565b6000613015826137af565b61301f81856137e9565b935061302f81856020860161399d565b61303881613b69565b840191505092915050565b600061304e826137af565b61305881856137fa565b935061306881856020860161399d565b80840191505092915050565b6000613081601a836137e9565b915061308c82613b7a565b602082019050919050565b60006130a4602b836137e9565b91506130af82613ba3565b604082019050919050565b60006130c76020836137e9565b91506130d282613bf2565b602082019050919050565b60006130ea6032836137e9565b91506130f582613c1b565b604082019050919050565b600061310d601a836137e9565b915061311882613c6a565b602082019050919050565b60006131306026836137e9565b915061313b82613c93565b604082019050919050565b60006131536025836137e9565b915061315e82613ce2565b604082019050919050565b6000613176601c836137e9565b915061318182613d31565b602082019050919050565b60006131996024836137e9565b91506131a482613d5a565b604082019050919050565b60006131bc6019836137e9565b91506131c782613da9565b602082019050919050565b60006131df6015836137e9565b91506131ea82613dd2565b602082019050919050565b60006132026029836137e9565b915061320d82613dfb565b604082019050919050565b6000613225603e836137e9565b915061323082613e4a565b604082019050919050565b60006132486020836137e9565b915061325382613e99565b602082019050919050565b600061326b6020836137e9565b915061327682613ec2565b602082019050919050565b600061328e6018836137e9565b915061329982613eeb565b602082019050919050565b60006132b16021836137e9565b91506132bc82613f14565b604082019050919050565b60006132d4602c836137e9565b91506132df82613f63565b604082019050919050565b60006132f76013836137e9565b915061330282613fb2565b602082019050919050565b600061331a602e836137e9565b915061332582613fdb565b604082019050919050565b61333981613984565b82525050565b61334881613984565b82525050565b600061335a8285613043565b91506133668284613043565b91508190509392505050565b60006020820190506133876000830184612f55565b92915050565b60006060820190506133a26000830186612f55565b6133af6020830185612f55565b6133bc604083018461333f565b949350505050565b60006080820190506133d96000830187612f55565b6133e66020830186612f55565b6133f3604083018561333f565b81810360608301526134058184612fd1565b905095945050505050565b60006040820190506134256000830185612f55565b613432602083018461333f565b9392505050565b600060208201905081810360008301526134538184612f64565b905092915050565b60006020820190506134706000830184612fc2565b92915050565b60006020820190508181036000830152613490818461300a565b905092915050565b600060208201905081810360008301526134b181613074565b9050919050565b600060208201905081810360008301526134d181613097565b9050919050565b600060208201905081810360008301526134f1816130ba565b9050919050565b60006020820190508181036000830152613511816130dd565b9050919050565b6000602082019050818103600083015261353181613100565b9050919050565b6000602082019050818103600083015261355181613123565b9050919050565b6000602082019050818103600083015261357181613146565b9050919050565b6000602082019050818103600083015261359181613169565b9050919050565b600060208201905081810360008301526135b18161318c565b9050919050565b600060208201905081810360008301526135d1816131af565b9050919050565b600060208201905081810360008301526135f1816131d2565b9050919050565b60006020820190508181036000830152613611816131f5565b9050919050565b6000602082019050818103600083015261363181613218565b9050919050565b600060208201905081810360008301526136518161323b565b9050919050565b600060208201905081810360008301526136718161325e565b9050919050565b6000602082019050818103600083015261369181613281565b9050919050565b600060208201905081810360008301526136b1816132a4565b9050919050565b600060208201905081810360008301526136d1816132c7565b9050919050565b600060208201905081810360008301526136f1816132ea565b9050919050565b600060208201905081810360008301526137118161330d565b9050919050565b600060208201905061372d600083018461333f565b92915050565b600061373d61374e565b90506137498282613a02565b919050565b6000604051905090565b600067ffffffffffffffff82111561377357613772613b3a565b5b61377c82613b69565b9050602081019050919050565b6000819050602082019050919050565b600081519050919050565b600081519050919050565b600081519050919050565b6000602082019050919050565b600082825260208201905092915050565b600082825260208201905092915050565b600082825260208201905092915050565b600081905092915050565b600061381082613984565b915061381b83613984565b9250827fffffffffffffffffffffffffffffffffffffffffffffffffffffffffffffffff038211156138505761384f613aad565b5b828201905092915050565b600061386682613984565b915061387183613984565b92508261388157613880613adc565b5b828204905092915050565b600061389782613984565b91506138a283613984565b9250817fffffffffffffffffffffffffffffffffffffffffffffffffffffffffffffffff04831182151516156138db576138da613aad565b5b828202905092915050565b60006138f182613984565b91506138fc83613984565b92508282101561390f5761390e613aad565b5b828203905092915050565b600061392582613964565b9050919050565b60008115159050919050565b60007fffffffff0000000000000000000000000000000000000000000000000000000082169050919050565b600073ffffffffffffffffffffffffffffffffffffffff82169050919050565b6000819050919050565b82818337600083830152505050565b60005b838110156139bb5780820151818401526020810190506139a0565b838111156139ca576000848401525b50505050565b600060028204905060018216806139e857607f821691505b602082108114156139fc576139fb613b0b565b5b50919050565b613a0b82613b69565b810181811067ffffffffffffffff82111715613a2a57613a29613b3a565b5b80604052505050565b6000613a3e82613984565b91507fffffffffffffffffffffffffffffffffffffffffffffffffffffffffffffffff821415613a7157613a70613aad565b5b600182019050919050565b6000613a8782613984565b9150613a9283613984565b925082613aa257613aa1613adc565b5b828206905092915050565b7f4e487b7100000000000000000000000000000000000000000000000000000000600052601160045260246000fd5b7f4e487b7100000000000000000000000000000000000000000000000000000000600052601260045260246000fd5b7f4e487b7100000000000000000000000000000000000000000000000000000000600052602260045260246000fd5b7f4e487b7100000000000000000000000000000000000000000000000000000000600052604160045260246000fd5b6000601f19601f8301169050919050565b7f596f752063616e6e6f74207472616e7366657220746f6b656e73000000000000600082015250565b7f455243373231456e756d657261626c653a206f776e657220696e646578206f7560008201527f74206f6620626f756e6473000000000000000000000000000000000000000000602082015250565b7f54686973206973206e6f7420746865207374616b696e6720636f6e7472616374600082015250565b7f4552433732313a207472616e7366657220746f206e6f6e20455243373231526560008201527f63656976657220696d706c656d656e7465720000000000000000000000000000602082015250565b7f596f7520646f206e6f74206f776e2061204b594320746f6b656e000000000000600082015250565b7f4f776e61626c653a206e6577206f776e657220697320746865207a65726f206160008201527f6464726573730000000000000000000000000000000000000000000000000000602082015250565b7f4552433732313a207472616e736665722066726f6d20696e636f72726563742060008201527f6f776e6572000000000000000000000000000000000000000000000000000000602082015250565b7f4552433732313a20746f6b656e20616c7265616479206d696e74656400000000600082015250565b7f4552433732313a207472616e7366657220746f20746865207a65726f2061646460008201527f7265737300000000000000000000000000000000000000000000000000000000602082015250565b7f4552433732313a20617070726f766520746f2063616c6c657200000000000000600082015250565b7f496e636f727265637420616d6f756e742073656e740000000000000000000000600082015250565b7f4552433732313a2061646472657373207a65726f206973206e6f74206120766160008201527f6c6964206f776e65720000000000000000000000000000000000000000000000602082015250565b7f4552433732313a20617070726f76652063616c6c6572206973206e6f7420746f60008201527f6b656e206f776e6572206e6f7220617070726f76656420666f7220616c6c0000602082015250565b7f4552433732313a206d696e7420746f20746865207a65726f2061646472657373600082015250565b7f4f776e61626c653a2063616c6c6572206973206e6f7420746865206f776e6572600082015250565b7f4552433732313a20696e76616c696420746f6b656e2049440000000000000000600082015250565b7f4552433732313a20617070726f76616c20746f2063757272656e74206f776e6560008201527f7200000000000000000000000000000000000000000000000000000000000000602082015250565b7f455243373231456e756d657261626c653a20676c6f62616c20696e646578206f60008201527f7574206f6620626f756e64730000000000000000000000000000000000000000602082015250565b7f4d696e74206c696d697420657863656564656400000000000000000000000000600082015250565b7f4552433732313a2063616c6c6572206973206e6f7420746f6b656e206f776e6560008201527f72206e6f7220617070726f766564000000000000000000000000000000000000602082015250565b6140338161391a565b811461403e57600080fd5b50565b61404a8161392c565b811461405557600080fd5b50565b61406181613938565b811461406c57600080fd5b50565b61407881613984565b811461408357600080fd5b5056fea2646970667358221220c6cb0351ea4f4424193aa2969054c67793212c77f82e51bb0a23e60dcfb5600064736f6c63430008040033",
  "linkReferences": {},
  "deployedLinkReferences": {}
}