{
  "_format": "hh-sol-artifact-1",
  "contractName": "REY_KYC",
  "sourceName": "contracts/erc721_KYC.sol",
  "abi": [
    {
      "inputs": [
        {
          "internalType": "string",
          "name": "_name",
          "type": "string"
        },
        {
          "internalType": "string",
          "name": "_symbol",
          "type": "string"
        }
      ],
      "stateMutability": "nonpayable",
      "type": "constructor"
    },
    {
      "anonymous": false,
      "inputs": [
        {
          "indexed": true,
          "internalType": "address",
          "name": "owner",
          "type": "address"
        },
        {
          "indexed": true,
          "internalType": "address",
          "name": "approved",
          "type": "address"
        },
        {
          "indexed": true,
          "internalType": "uint256",
          "name": "tokenId",
          "type": "uint256"
        }
      ],
      "name": "Approval",
      "type": "event"
    },
    {
      "anonymous": false,
      "inputs": [
        {
          "indexed": true,
          "internalType": "address",
          "name": "owner",
          "type": "address"
        },
        {
          "indexed": true,
          "internalType": "address",
          "name": "operator",
          "type": "address"
        },
        {
          "indexed": false,
          "internalType": "bool",
          "name": "approved",
          "type": "bool"
        }
      ],
      "name": "ApprovalForAll",
      "type": "event"
    },
    {
      "anonymous": false,
      "inputs": [
        {
          "indexed": true,
          "internalType": "address",
          "name": "previousOwner",
          "type": "address"
        },
        {
          "indexed": true,
          "internalType": "address",
          "name": "newOwner",
          "type": "address"
        }
      ],
      "name": "OwnershipTransferred",
      "type": "event"
    },
    {
      "anonymous": false,
      "inputs": [
        {
          "indexed": true,
          "internalType": "address",
          "name": "from",
          "type": "address"
        },
        {
          "indexed": true,
          "internalType": "address",
          "name": "to",
          "type": "address"
        },
        {
          "indexed": true,
          "internalType": "uint256",
          "name": "tokenId",
          "type": "uint256"
        }
      ],
      "name": "Transfer",
      "type": "event"
    },
    {
      "inputs": [
        {
          "internalType": "address",
          "name": "to",
          "type": "address"
        },
        {
          "internalType": "uint256",
          "name": "tokenId",
          "type": "uint256"
        }
      ],
      "name": "approve",
      "outputs": [],
      "stateMutability": "nonpayable",
      "type": "function"
    },
    {
      "inputs": [
        {
          "internalType": "address",
          "name": "owner",
          "type": "address"
        }
      ],
      "name": "balanceOf",
      "outputs": [
        {
          "internalType": "uint256",
          "name": "",
          "type": "uint256"
        }
      ],
      "stateMutability": "view",
      "type": "function"
    },
    {
      "inputs": [
        {
          "internalType": "uint256",
          "name": "_tokenId",
          "type": "uint256"
        }
      ],
      "name": "disableKYC",
      "outputs": [],
      "stateMutability": "nonpayable",
      "type": "function"
    },
    {
      "inputs": [
        {
          "internalType": "uint256",
          "name": "_tokenId",
          "type": "uint256"
        }
      ],
      "name": "enableKYC",
      "outputs": [],
      "stateMutability": "nonpayable",
      "type": "function"
    },
    {
      "inputs": [
        {
          "internalType": "uint256",
          "name": "tokenId",
          "type": "uint256"
        }
      ],
      "name": "getApproved",
      "outputs": [
        {
          "internalType": "address",
          "name": "",
          "type": "address"
        }
      ],
      "stateMutability": "view",
      "type": "function"
    },
    {
      "inputs": [
        {
          "internalType": "address",
          "name": "owner",
          "type": "address"
        },
        {
          "internalType": "address",
          "name": "operator",
          "type": "address"
        }
      ],
      "name": "isApprovedForAll",
      "outputs": [
        {
          "internalType": "bool",
          "name": "",
          "type": "bool"
        }
      ],
      "stateMutability": "view",
      "type": "function"
    },
    {
      "inputs": [
        {
          "internalType": "uint256",
          "name": "",
          "type": "uint256"
        }
      ],
      "name": "isEnabled",
      "outputs": [
        {
          "internalType": "bool",
          "name": "",
          "type": "bool"
        }
      ],
      "stateMutability": "view",
      "type": "function"
    },
    {
      "inputs": [
        {
          "internalType": "address",
          "name": "_user",
          "type": "address"
        }
      ],
      "name": "mint",
      "outputs": [],
      "stateMutability": "nonpayable",
      "type": "function"
    },
    {
      "inputs": [
        {
          "internalType": "uint256",
          "name": "_maxSupply",
          "type": "uint256"
        }
      ],
      "name": "modifyMaxSupply",
      "outputs": [],
      "stateMutability": "nonpayable",
      "type": "function"
    },
    {
      "inputs": [],
      "name": "name",
      "outputs": [
        {
          "internalType": "string",
          "name": "",
          "type": "string"
        }
      ],
      "stateMutability": "view",
      "type": "function"
    },
    {
      "inputs": [],
      "name": "owner",
      "outputs": [
        {
          "internalType": "address",
          "name": "",
          "type": "address"
        }
      ],
      "stateMutability": "view",
      "type": "function"
    },
    {
      "inputs": [
        {
          "internalType": "uint256",
          "name": "tokenId",
          "type": "uint256"
        }
      ],
      "name": "ownerOf",
      "outputs": [
        {
          "internalType": "address",
          "name": "",
          "type": "address"
        }
      ],
      "stateMutability": "view",
      "type": "function"
    },
    {
      "inputs": [],
      "name": "renounceOwnership",
      "outputs": [],
      "stateMutability": "nonpayable",
      "type": "function"
    },
    {
      "inputs": [
        {
          "internalType": "address",
          "name": "from",
          "type": "address"
        },
        {
          "internalType": "address",
          "name": "to",
          "type": "address"
        },
        {
          "internalType": "uint256",
          "name": "tokenId",
          "type": "uint256"
        }
      ],
      "name": "safeTransferFrom",
      "outputs": [],
      "stateMutability": "nonpayable",
      "type": "function"
    },
    {
      "inputs": [
        {
          "internalType": "address",
          "name": "from",
          "type": "address"
        },
        {
          "internalType": "address",
          "name": "to",
          "type": "address"
        },
        {
          "internalType": "uint256",
          "name": "tokenId",
          "type": "uint256"
        },
        {
          "internalType": "bytes",
          "name": "_data",
          "type": "bytes"
        }
      ],
      "name": "safeTransferFrom",
      "outputs": [],
      "stateMutability": "nonpayable",
      "type": "function"
    },
    {
      "inputs": [
        {
          "internalType": "address",
          "name": "operator",
          "type": "address"
        },
        {
          "internalType": "bool",
          "name": "approved",
          "type": "bool"
        }
      ],
      "name": "setApprovalForAll",
      "outputs": [],
      "stateMutability": "nonpayable",
      "type": "function"
    },
    {
      "inputs": [
        {
          "internalType": "bytes4",
          "name": "interfaceId",
          "type": "bytes4"
        }
      ],
      "name": "supportsInterface",
      "outputs": [
        {
          "internalType": "bool",
          "name": "",
          "type": "bool"
        }
      ],
      "stateMutability": "view",
      "type": "function"
    },
    {
      "inputs": [],
      "name": "symbol",
      "outputs": [
        {
          "internalType": "string",
          "name": "",
          "type": "string"
        }
      ],
      "stateMutability": "view",
      "type": "function"
    },
    {
      "inputs": [
        {
          "internalType": "uint256",
          "name": "index",
          "type": "uint256"
        }
      ],
      "name": "tokenByIndex",
      "outputs": [
        {
          "internalType": "uint256",
          "name": "",
          "type": "uint256"
        }
      ],
      "stateMutability": "view",
      "type": "function"
    },
    {
      "inputs": [
        {
          "internalType": "address",
          "name": "owner",
          "type": "address"
        },
        {
          "internalType": "uint256",
          "name": "index",
          "type": "uint256"
        }
      ],
      "name": "tokenOfOwnerByIndex",
      "outputs": [
        {
          "internalType": "uint256",
          "name": "",
          "type": "uint256"
        }
      ],
      "stateMutability": "view",
      "type": "function"
    },
    {
      "inputs": [
        {
          "internalType": "uint256",
          "name": "tokenId",
          "type": "uint256"
        }
      ],
      "name": "tokenURI",
      "outputs": [
        {
          "internalType": "string",
          "name": "",
          "type": "string"
        }
      ],
      "stateMutability": "view",
      "type": "function"
    },
    {
      "inputs": [],
      "name": "totalSupply",
      "outputs": [
        {
          "internalType": "uint256",
          "name": "",
          "type": "uint256"
        }
      ],
      "stateMutability": "view",
      "type": "function"
    },
    {
      "inputs": [
        {
          "internalType": "address",
          "name": "from",
          "type": "address"
        },
        {
          "internalType": "address",
          "name": "to",
          "type": "address"
        },
        {
          "internalType": "uint256",
          "name": "tokenId",
          "type": "uint256"
        }
      ],
      "name": "transferFrom",
      "outputs": [],
      "stateMutability": "nonpayable",
      "type": "function"
    },
    {
      "inputs": [
        {
          "internalType": "address",
          "name": "newOwner",
          "type": "address"
        }
      ],
      "name": "transferOwnership",
      "outputs": [],
      "stateMutability": "nonpayable",
      "type": "function"
    }
  ],
  "bytecode": "0x60806040526064600b553480156200001657600080fd5b50604051620033573803806200335783398181016040528101906200003c91906200028a565b818181600090805190602001906200005692919062000168565b5080600190805190602001906200006f92919062000168565b50505062000092620000866200009a60201b60201c565b620000a260201b60201c565b50506200046d565b600033905090565b6000600a60009054906101000a900473ffffffffffffffffffffffffffffffffffffffff16905081600a60006101000a81548173ffffffffffffffffffffffffffffffffffffffff021916908373ffffffffffffffffffffffffffffffffffffffff1602179055508173ffffffffffffffffffffffffffffffffffffffff168173ffffffffffffffffffffffffffffffffffffffff167f8be0079c531659141344cd1fd0a4f28419497f9722a3daafe3b4186f6b6457e060405160405180910390a35050565b828054620001769062000392565b90600052602060002090601f0160209004810192826200019a5760008555620001e6565b82601f10620001b557805160ff1916838001178555620001e6565b82800160010185558215620001e6579182015b82811115620001e5578251825591602001919060010190620001c8565b5b509050620001f59190620001f9565b5090565b5b8082111562000214576000816000905550600101620001fa565b5090565b60006200022f620002298462000326565b620002fd565b9050828152602081018484840111156200024857600080fd5b620002558482856200035c565b509392505050565b600082601f8301126200026f57600080fd5b81516200028184826020860162000218565b91505092915050565b600080604083850312156200029e57600080fd5b600083015167ffffffffffffffff811115620002b957600080fd5b620002c7858286016200025d565b925050602083015167ffffffffffffffff811115620002e557600080fd5b620002f3858286016200025d565b9150509250929050565b6000620003096200031c565b9050620003178282620003c8565b919050565b6000604051905090565b600067ffffffffffffffff8211156200034457620003436200042d565b5b6200034f826200045c565b9050602081019050919050565b60005b838110156200037c5780820151818401526020810190506200035f565b838111156200038c576000848401525b50505050565b60006002820490506001821680620003ab57607f821691505b60208210811415620003c257620003c1620003fe565b5b50919050565b620003d3826200045c565b810181811067ffffffffffffffff82111715620003f557620003f46200042d565b5b80604052505050565b7f4e487b7100000000000000000000000000000000000000000000000000000000600052602260045260246000fd5b7f4e487b7100000000000000000000000000000000000000000000000000000000600052604160045260246000fd5b6000601f19601f8301169050919050565b612eda806200047d6000396000f3fe608060405234801561001057600080fd5b50600436106101585760003560e01c80636a627842116100c3578063b1b9cc581161007c578063b1b9cc58146103c3578063b88d4fde146103df578063c783034c146103fb578063c87b56dd1461042b578063e985e9c51461045b578063f2fde38b1461048b57610158565b80636a6278421461031557806370a0823114610331578063715018a6146103615780638da5cb5b1461036b57806395d89b4114610389578063a22cb465146103a757610158565b806323b872dd1161011557806323b872dd146102315780632f745c591461024d57806331b6aa121461027d57806342842e0e146102995780634f6ccce7146102b55780636352211e146102e557610158565b806301ffc9a71461015d57806306fdde031461018d578063081812fc146101ab578063095ea7b3146101db57806318160ddd146101f7578063191440d014610215575b600080fd5b610177600480360381019061017291906120bc565b6104a7565b604051610184919061249f565b60405180910390f35b6101956104b9565b6040516101a291906124ba565b60405180910390f35b6101c560048036038101906101c0919061210e565b61054b565b6040516101d29190612438565b60405180910390f35b6101f560048036038101906101f09190612080565b610591565b005b6101ff6106a9565b60405161020c91906126bc565b60405180910390f35b61022f600480360381019061022a919061210e565b6106b6565b005b61024b60048036038101906102469190611f7a565b6106ed565b005b61026760048036038101906102629190612080565b610728565b60405161027491906126bc565b60405180910390f35b6102976004803603810190610292919061210e565b6107cd565b005b6102b360048036038101906102ae9190611f7a565b6107df565b005b6102cf60048036038101906102ca919061210e565b61081a565b6040516102dc91906126bc565b60405180910390f35b6102ff60048036038101906102fa919061210e565b6108b1565b60405161030c9190612438565b60405180910390f35b61032f600480360381019061032a9190611f15565b610963565b005b61034b60048036038101906103469190611f15565b610a0a565b60405161035891906126bc565b60405180910390f35b610369610ac2565b005b610373610ad6565b6040516103809190612438565b60405180910390f35b610391610b00565b60405161039e91906124ba565b60405180910390f35b6103c160048036038101906103bc9190612044565b610b92565b005b6103dd60048036038101906103d8919061210e565b610ba8565b005b6103f960048036038101906103f49190611fc9565b610bdf565b005b6104156004803603810190610410919061210e565b610c1a565b604051610422919061249f565b60405180910390f35b6104456004803603810190610440919061210e565b610c3a565b60405161045291906124ba565b60405180910390f35b61047560048036038101906104709190611f3e565b610ca2565b604051610482919061249f565b60405180910390f35b6104a560048036038101906104a09190611f15565b610d36565b005b60006104b282610dba565b9050919050565b6060600080546104c8906128e1565b80601f01602080910402602001604051908101604052809291908181526020018280546104f4906128e1565b80156105415780601f1061051657610100808354040283529160200191610541565b820191906000526020600020905b81548152906001019060200180831161052457829003601f168201915b5050505050905090565b600061055682610e34565b6004600083815260200190815260200160002060009054906101000a900473ffffffffffffffffffffffffffffffffffffffff169050919050565b600061059c826108b1565b90508073ffffffffffffffffffffffffffffffffffffffff168373ffffffffffffffffffffffffffffffffffffffff16141561060d576040517f08c379a00000000000000000000000000000000000000000000000000000000081526004016106049061267c565b60405180910390fd5b8073ffffffffffffffffffffffffffffffffffffffff1661062c610e7f565b73ffffffffffffffffffffffffffffffffffffffff16148061065b575061065a81610655610e7f565b610ca2565b5b61069a576040517f08c379a0000000000000000000000000000000000000000000000000000000008152600401610691906125dc565b60405180910390fd5b6106a48383610e87565b505050565b6000600880549050905090565b6106be610f40565b6000600c600083815260200190815260200160002060006101000a81548160ff02191690831515021790555050565b6040517f08c379a000000000000000000000000000000000000000000000000000000000815260040161071f9061255c565b60405180910390fd5b600061073383610a0a565b8210610774576040517f08c379a000000000000000000000000000000000000000000000000000000000815260040161076b906124dc565b60405180910390fd5b600660008473ffffffffffffffffffffffffffffffffffffffff1673ffffffffffffffffffffffffffffffffffffffff168152602001908152602001600020600083815260200190815260200160002054905092915050565b6107d5610f40565b80600b8190555050565b6040517f08c379a00000000000000000000000000000000000000000000000000000000081526004016108119061261c565b60405180910390fd5b60006108246106a9565b8210610865576040517f08c379a000000000000000000000000000000000000000000000000000000000815260040161085c9061269c565b60405180910390fd5b6008828154811061089f577f4e487b7100000000000000000000000000000000000000000000000000000000600052603260045260246000fd5b90600052602060002001549050919050565b6000806002600084815260200190815260200160002060009054906101000a900473ffffffffffffffffffffffffffffffffffffffff169050600073ffffffffffffffffffffffffffffffffffffffff168173ffffffffffffffffffffffffffffffffffffffff16141561095a576040517f08c379a00000000000000000000000000000000000000000000000000000000081526004016109519061265c565b60405180910390fd5b80915050919050565b61096b610f40565b80600061097782610a0a565b146109b7576040517f08c379a00000000000000000000000000000000000000000000000000000000081526004016109ae9061259c565b60405180910390fd5b6109c1600d610fbe565b60006109cd600d610fd4565b90506001600c600083815260200190815260200160002060006101000a81548160ff021916908315150217905550610a058382610fe2565b505050565b60008073ffffffffffffffffffffffffffffffffffffffff168273ffffffffffffffffffffffffffffffffffffffff161415610a7b576040517f08c379a0000000000000000000000000000000000000000000000000000000008152600401610a72906125bc565b60405180910390fd5b600360008373ffffffffffffffffffffffffffffffffffffffff1673ffffffffffffffffffffffffffffffffffffffff168152602001908152602001600020549050919050565b610aca610f40565b610ad46000611000565b565b6000600a60009054906101000a900473ffffffffffffffffffffffffffffffffffffffff16905090565b606060018054610b0f906128e1565b80601f0160208091040260200160405190810160405280929190818152602001828054610b3b906128e1565b8015610b885780601f10610b5d57610100808354040283529160200191610b88565b820191906000526020600020905b815481529060010190602001808311610b6b57829003601f168201915b5050505050905090565b610ba4610b9d610e7f565b83836110c6565b5050565b610bb0610f40565b6001600c600083815260200190815260200160002060006101000a81548160ff02191690831515021790555050565b6040517f08c379a0000000000000000000000000000000000000000000000000000000008152600401610c119061261c565b60405180910390fd5b600c6020528060005260406000206000915054906101000a900460ff1681565b6060610c4582610e34565b6000610c4f611233565b90506000815111610c6f5760405180602001604052806000815250610c9a565b80610c798461124a565b604051602001610c8a929190612414565b6040516020818303038152906040525b915050919050565b6000600560008473ffffffffffffffffffffffffffffffffffffffff1673ffffffffffffffffffffffffffffffffffffffff16815260200190815260200160002060008373ffffffffffffffffffffffffffffffffffffffff1673ffffffffffffffffffffffffffffffffffffffff16815260200190815260200160002060009054906101000a900460ff16905092915050565b610d3e610f40565b600073ffffffffffffffffffffffffffffffffffffffff168173ffffffffffffffffffffffffffffffffffffffff161415610dae576040517f08c379a0000000000000000000000000000000000000000000000000000000008152600401610da59061251c565b60405180910390fd5b610db781611000565b50565b60007f780e9d63000000000000000000000000000000000000000000000000000000007bffffffffffffffffffffffffffffffffffffffffffffffffffffffff1916827bffffffffffffffffffffffffffffffffffffffffffffffffffffffff19161480610e2d5750610e2c826113f7565b5b9050919050565b610e3d816114d9565b610e7c576040517f08c379a0000000000000000000000000000000000000000000000000000000008152600401610e739061265c565b60405180910390fd5b50565b600033905090565b816004600083815260200190815260200160002060006101000a81548173ffffffffffffffffffffffffffffffffffffffff021916908373ffffffffffffffffffffffffffffffffffffffff160217905550808273ffffffffffffffffffffffffffffffffffffffff16610efa836108b1565b73ffffffffffffffffffffffffffffffffffffffff167f8c5be1e5ebec7d5bd14f71427d1e84f3dd0314c0f7b2291e5b200ac8c7c3b92560405160405180910390a45050565b610f48610e7f565b73ffffffffffffffffffffffffffffffffffffffff16610f66610ad6565b73ffffffffffffffffffffffffffffffffffffffff1614610fbc576040517f08c379a0000000000000000000000000000000000000000000000000000000008152600401610fb39061263c565b60405180910390fd5b565b6001816000016000828254019250508190555050565b600081600001549050919050565b610ffc828260405180602001604052806000815250611545565b5050565b6000600a60009054906101000a900473ffffffffffffffffffffffffffffffffffffffff16905081600a60006101000a81548173ffffffffffffffffffffffffffffffffffffffff021916908373ffffffffffffffffffffffffffffffffffffffff1602179055508173ffffffffffffffffffffffffffffffffffffffff168173ffffffffffffffffffffffffffffffffffffffff167f8be0079c531659141344cd1fd0a4f28419497f9722a3daafe3b4186f6b6457e060405160405180910390a35050565b8173ffffffffffffffffffffffffffffffffffffffff168373ffffffffffffffffffffffffffffffffffffffff161415611135576040517f08c379a000000000000000000000000000000000000000000000000000000000815260040161112c9061257c565b60405180910390fd5b80600560008573ffffffffffffffffffffffffffffffffffffffff1673ffffffffffffffffffffffffffffffffffffffff16815260200190815260200160002060008473ffffffffffffffffffffffffffffffffffffffff1673ffffffffffffffffffffffffffffffffffffffff16815260200190815260200160002060006101000a81548160ff0219169083151502179055508173ffffffffffffffffffffffffffffffffffffffff168373ffffffffffffffffffffffffffffffffffffffff167f17307eab39ab6107e8899845ad3d59bd9653f200f220920489ca2b5937696c3183604051611226919061249f565b60405180910390a3505050565b606060405180602001604052806000815250905090565b60606000821415611292576040518060400160405280600181526020017f300000000000000000000000000000000000000000000000000000000000000081525090506113f2565b600082905060005b600082146112c45780806112ad90612944565b915050600a826112bd91906127c6565b915061129a565b60008167ffffffffffffffff811115611306577f4e487b7100000000000000000000000000000000000000000000000000000000600052604160045260246000fd5b6040519080825280601f01601f1916602001820160405280156113385781602001600182028036833780820191505090505b5090505b600085146113eb5760018261135191906127f7565b9150600a85611360919061298d565b603061136c9190612770565b60f81b8183815181106113a8577f4e487b7100000000000000000000000000000000000000000000000000000000600052603260045260246000fd5b60200101907effffffffffffffffffffffffffffffffffffffffffffffffffffffffffffff1916908160001a905350600a856113e491906127c6565b945061133c565b8093505050505b919050565b60007f80ac58cd000000000000000000000000000000000000000000000000000000007bffffffffffffffffffffffffffffffffffffffffffffffffffffffff1916827bffffffffffffffffffffffffffffffffffffffffffffffffffffffff191614806114c257507f5b5e139f000000000000000000000000000000000000000000000000000000007bffffffffffffffffffffffffffffffffffffffffffffffffffffffff1916827bffffffffffffffffffffffffffffffffffffffffffffffffffffffff1916145b806114d257506114d1826115a0565b5b9050919050565b60008073ffffffffffffffffffffffffffffffffffffffff166002600084815260200190815260200160002060009054906101000a900473ffffffffffffffffffffffffffffffffffffffff1673ffffffffffffffffffffffffffffffffffffffff1614159050919050565b61154f838361160a565b61155c60008484846117e4565b61159b576040517f08c379a0000000000000000000000000000000000000000000000000000000008152600401611592906124fc565b60405180910390fd5b505050565b60007f01ffc9a7000000000000000000000000000000000000000000000000000000007bffffffffffffffffffffffffffffffffffffffffffffffffffffffff1916827bffffffffffffffffffffffffffffffffffffffffffffffffffffffff1916149050919050565b600073ffffffffffffffffffffffffffffffffffffffff168273ffffffffffffffffffffffffffffffffffffffff16141561167a576040517f08c379a0000000000000000000000000000000000000000000000000000000008152600401611671906125fc565b60405180910390fd5b611683816114d9565b156116c3576040517f08c379a00000000000000000000000000000000000000000000000000000000081526004016116ba9061253c565b60405180910390fd5b6116cf6000838361197b565b6001600360008473ffffffffffffffffffffffffffffffffffffffff1673ffffffffffffffffffffffffffffffffffffffff168152602001908152602001600020600082825461171f9190612770565b92505081905550816002600083815260200190815260200160002060006101000a81548173ffffffffffffffffffffffffffffffffffffffff021916908373ffffffffffffffffffffffffffffffffffffffff160217905550808273ffffffffffffffffffffffffffffffffffffffff16600073ffffffffffffffffffffffffffffffffffffffff167fddf252ad1be2c89b69c2b068fc378daa952ba7f163c4a11628f55a4df523b3ef60405160405180910390a46117e06000838361198b565b5050565b60006118058473ffffffffffffffffffffffffffffffffffffffff16611990565b1561196e578373ffffffffffffffffffffffffffffffffffffffff1663150b7a0261182e610e7f565b8786866040518563ffffffff1660e01b81526004016118509493929190612453565b602060405180830381600087803b15801561186a57600080fd5b505af192505050801561189b57506040513d601f19601f8201168201806040525081019061189891906120e5565b60015b61191e573d80600081146118cb576040519150601f19603f3d011682016040523d82523d6000602084013e6118d0565b606091505b50600081511415611916576040517f08c379a000000000000000000000000000000000000000000000000000000000815260040161190d906124fc565b60405180910390fd5b805181602001fd5b63150b7a0260e01b7bffffffffffffffffffffffffffffffffffffffffffffffffffffffff1916817bffffffffffffffffffffffffffffffffffffffffffffffffffffffff191614915050611973565b600190505b949350505050565b6119868383836119b3565b505050565b505050565b6000808273ffffffffffffffffffffffffffffffffffffffff163b119050919050565b6119be838383611ac7565b600073ffffffffffffffffffffffffffffffffffffffff168373ffffffffffffffffffffffffffffffffffffffff161415611a01576119fc81611acc565b611a40565b8173ffffffffffffffffffffffffffffffffffffffff168373ffffffffffffffffffffffffffffffffffffffff1614611a3f57611a3e8382611b15565b5b5b600073ffffffffffffffffffffffffffffffffffffffff168273ffffffffffffffffffffffffffffffffffffffff161415611a8357611a7e81611c82565b611ac2565b8273ffffffffffffffffffffffffffffffffffffffff168273ffffffffffffffffffffffffffffffffffffffff1614611ac157611ac08282611dc5565b5b5b505050565b505050565b6008805490506009600083815260200190815260200160002081905550600881908060018154018082558091505060019003906000526020600020016000909190919091505550565b60006001611b2284610a0a565b611b2c91906127f7565b9050600060076000848152602001908152602001600020549050818114611c11576000600660008673ffffffffffffffffffffffffffffffffffffffff1673ffffffffffffffffffffffffffffffffffffffff168152602001908152602001600020600084815260200190815260200160002054905080600660008773ffffffffffffffffffffffffffffffffffffffff1673ffffffffffffffffffffffffffffffffffffffff168152602001908152602001600020600084815260200190815260200160002081905550816007600083815260200190815260200160002081905550505b6007600084815260200190815260200160002060009055600660008573ffffffffffffffffffffffffffffffffffffffff1673ffffffffffffffffffffffffffffffffffffffff16815260200190815260200160002060008381526020019081526020016000206000905550505050565b60006001600880549050611c9691906127f7565b9050600060096000848152602001908152602001600020549050600060088381548110611cec577f4e487b7100000000000000000000000000000000000000000000000000000000600052603260045260246000fd5b906000526020600020015490508060088381548110611d34577f4e487b7100000000000000000000000000000000000000000000000000000000600052603260045260246000fd5b906000526020600020018190555081600960008381526020019081526020016000208190555060096000858152602001908152602001600020600090556008805480611da9577f4e487b7100000000000000000000000000000000000000000000000000000000600052603160045260246000fd5b6001900381819060005260206000200160009055905550505050565b6000611dd083610a0a565b905081600660008573ffffffffffffffffffffffffffffffffffffffff1673ffffffffffffffffffffffffffffffffffffffff168152602001908152602001600020600083815260200190815260200160002081905550806007600084815260200190815260200160002081905550505050565b6000611e57611e52846126fc565b6126d7565b905082815260208101848484011115611e6f57600080fd5b611e7a84828561289f565b509392505050565b600081359050611e9181612e48565b92915050565b600081359050611ea681612e5f565b92915050565b600081359050611ebb81612e76565b92915050565b600081519050611ed081612e76565b92915050565b600082601f830112611ee757600080fd5b8135611ef7848260208601611e44565b91505092915050565b600081359050611f0f81612e8d565b92915050565b600060208284031215611f2757600080fd5b6000611f3584828501611e82565b91505092915050565b60008060408385031215611f5157600080fd5b6000611f5f85828601611e82565b9250506020611f7085828601611e82565b9150509250929050565b600080600060608486031215611f8f57600080fd5b6000611f9d86828701611e82565b9350506020611fae86828701611e82565b9250506040611fbf86828701611f00565b9150509250925092565b60008060008060808587031215611fdf57600080fd5b6000611fed87828801611e82565b9450506020611ffe87828801611e82565b935050604061200f87828801611f00565b925050606085013567ffffffffffffffff81111561202c57600080fd5b61203887828801611ed6565b91505092959194509250565b6000806040838503121561205757600080fd5b600061206585828601611e82565b925050602061207685828601611e97565b9150509250929050565b6000806040838503121561209357600080fd5b60006120a185828601611e82565b92505060206120b285828601611f00565b9150509250929050565b6000602082840312156120ce57600080fd5b60006120dc84828501611eac565b91505092915050565b6000602082840312156120f757600080fd5b600061210584828501611ec1565b91505092915050565b60006020828403121561212057600080fd5b600061212e84828501611f00565b91505092915050565b6121408161282b565b82525050565b61214f8161283d565b82525050565b60006121608261272d565b61216a8185612743565b935061217a8185602086016128ae565b61218381612a7a565b840191505092915050565b600061219982612738565b6121a38185612754565b93506121b38185602086016128ae565b6121bc81612a7a565b840191505092915050565b60006121d282612738565b6121dc8185612765565b93506121ec8185602086016128ae565b80840191505092915050565b6000612205602b83612754565b915061221082612a8b565b604082019050919050565b6000612228603283612754565b915061223382612ada565b604082019050919050565b600061224b602683612754565b915061225682612b29565b604082019050919050565b600061226e601c83612754565b915061227982612b78565b602082019050919050565b6000612291602183612754565b915061229c82612ba1565b604082019050919050565b60006122b4601983612754565b91506122bf82612bf0565b602082019050919050565b60006122d7601883612754565b91506122e282612c19565b602082019050919050565b60006122fa602983612754565b915061230582612c42565b604082019050919050565b600061231d603e83612754565b915061232882612c91565b604082019050919050565b6000612340602083612754565b915061234b82612ce0565b602082019050919050565b6000612363602583612754565b915061236e82612d09565b604082019050919050565b6000612386602083612754565b915061239182612d58565b602082019050919050565b60006123a9601883612754565b91506123b482612d81565b602082019050919050565b60006123cc602183612754565b91506123d782612daa565b604082019050919050565b60006123ef602c83612754565b91506123fa82612df9565b604082019050919050565b61240e81612895565b82525050565b600061242082856121c7565b915061242c82846121c7565b91508190509392505050565b600060208201905061244d6000830184612137565b92915050565b60006080820190506124686000830187612137565b6124756020830186612137565b6124826040830185612405565b81810360608301526124948184612155565b905095945050505050565b60006020820190506124b46000830184612146565b92915050565b600060208201905081810360008301526124d4818461218e565b905092915050565b600060208201905081810360008301526124f5816121f8565b9050919050565b600060208201905081810360008301526125158161221b565b9050919050565b600060208201905081810360008301526125358161223e565b9050919050565b6000602082019050818103600083015261255581612261565b9050919050565b6000602082019050818103600083015261257581612284565b9050919050565b60006020820190508181036000830152612595816122a7565b9050919050565b600060208201905081810360008301526125b5816122ca565b9050919050565b600060208201905081810360008301526125d5816122ed565b9050919050565b600060208201905081810360008301526125f581612310565b9050919050565b6000602082019050818103600083015261261581612333565b9050919050565b6000602082019050818103600083015261263581612356565b9050919050565b6000602082019050818103600083015261265581612379565b9050919050565b600060208201905081810360008301526126758161239c565b9050919050565b60006020820190508181036000830152612695816123bf565b9050919050565b600060208201905081810360008301526126b5816123e2565b9050919050565b60006020820190506126d16000830184612405565b92915050565b60006126e16126f2565b90506126ed8282612913565b919050565b6000604051905090565b600067ffffffffffffffff82111561271757612716612a4b565b5b61272082612a7a565b9050602081019050919050565b600081519050919050565b600081519050919050565b600082825260208201905092915050565b600082825260208201905092915050565b600081905092915050565b600061277b82612895565b915061278683612895565b9250827fffffffffffffffffffffffffffffffffffffffffffffffffffffffffffffffff038211156127bb576127ba6129be565b5b828201905092915050565b60006127d182612895565b91506127dc83612895565b9250826127ec576127eb6129ed565b5b828204905092915050565b600061280282612895565b915061280d83612895565b9250828210156128205761281f6129be565b5b828203905092915050565b600061283682612875565b9050919050565b60008115159050919050565b60007fffffffff0000000000000000000000000000000000000000000000000000000082169050919050565b600073ffffffffffffffffffffffffffffffffffffffff82169050919050565b6000819050919050565b82818337600083830152505050565b60005b838110156128cc5780820151818401526020810190506128b1565b838111156128db576000848401525b50505050565b600060028204905060018216806128f957607f821691505b6020821081141561290d5761290c612a1c565b5b50919050565b61291c82612a7a565b810181811067ffffffffffffffff8211171561293b5761293a612a4b565b5b80604052505050565b600061294f82612895565b91507fffffffffffffffffffffffffffffffffffffffffffffffffffffffffffffffff821415612982576129816129be565b5b600182019050919050565b600061299882612895565b91506129a383612895565b9250826129b3576129b26129ed565b5b828206905092915050565b7f4e487b7100000000000000000000000000000000000000000000000000000000600052601160045260246000fd5b7f4e487b7100000000000000000000000000000000000000000000000000000000600052601260045260246000fd5b7f4e487b7100000000000000000000000000000000000000000000000000000000600052602260045260246000fd5b7f4e487b7100000000000000000000000000000000000000000000000000000000600052604160045260246000fd5b6000601f19601f8301169050919050565b7f455243373231456e756d657261626c653a206f776e657220696e646578206f7560008201527f74206f6620626f756e6473000000000000000000000000000000000000000000602082015250565b7f4552433732313a207472616e7366657220746f206e6f6e20455243373231526560008201527f63656976657220696d706c656d656e7465720000000000000000000000000000602082015250565b7f4f776e61626c653a206e6577206f776e657220697320746865207a65726f206160008201527f6464726573730000000000000000000000000000000000000000000000000000602082015250565b7f4552433732313a20746f6b656e20616c7265616479206d696e74656400000000600082015250565b7f7472616e7366657246726f6d3a2063616e6e6f74207472616e73666572204e4660008201527f5400000000000000000000000000000000000000000000000000000000000000602082015250565b7f4552433732313a20617070726f766520746f2063616c6c657200000000000000600082015250565b7f596f7520616c72656164792068617665206120746f6b656e0000000000000000600082015250565b7f4552433732313a2061646472657373207a65726f206973206e6f74206120766160008201527f6c6964206f776e65720000000000000000000000000000000000000000000000602082015250565b7f4552433732313a20617070726f76652063616c6c6572206973206e6f7420746f60008201527f6b656e206f776e6572206e6f7220617070726f76656420666f7220616c6c0000602082015250565b7f4552433732313a206d696e7420746f20746865207a65726f2061646472657373600082015250565b7f736166655472616e7366657246726f6d3a2063616e6e6f74207472616e73666560008201527f72204e4654000000000000000000000000000000000000000000000000000000602082015250565b7f4f776e61626c653a2063616c6c6572206973206e6f7420746865206f776e6572600082015250565b7f4552433732313a20696e76616c696420746f6b656e2049440000000000000000600082015250565b7f4552433732313a20617070726f76616c20746f2063757272656e74206f776e6560008201527f7200000000000000000000000000000000000000000000000000000000000000602082015250565b7f455243373231456e756d657261626c653a20676c6f62616c20696e646578206f60008201527f7574206f6620626f756e64730000000000000000000000000000000000000000602082015250565b612e518161282b565b8114612e5c57600080fd5b50565b612e688161283d565b8114612e7357600080fd5b50565b612e7f81612849565b8114612e8a57600080fd5b50565b612e9681612895565b8114612ea157600080fd5b5056fea2646970667358221220659d66ea6eb7f780773bbfa69b93e30432102a2581513d05e26abca6c6cd642564736f6c63430008040033",
  "linkReferences": {},
  "deployedLinkReferences": {}
}