{
  "_format": "hh-sol-artifact-1",
  "contractName": "REYieldStaking",
  "sourceName": "contracts/staking_contract.sol",
  "abi": [
    {
      "inputs": [
        {
          "internalType": "contract IERC721",
          "name": "_nftCollection",
          "type": "address"
        },
        {
          "internalType": "contract IERC20",
          "name": "_rewardsToken",
          "type": "address"
        }
      ],
      "stateMutability": "nonpayable",
      "type": "constructor"
    },
    {
      "anonymous": false,
      "inputs": [
        {
          "indexed": true,
          "internalType": "address",
          "name": "previousOwner",
          "type": "address"
        },
        {
          "indexed": true,
          "internalType": "address",
          "name": "newOwner",
          "type": "address"
        }
      ],
      "name": "OwnershipTransferred",
      "type": "event"
    },
    {
      "inputs": [
        {
          "internalType": "address",
          "name": "_staker",
          "type": "address"
        }
      ],
      "name": "availableRewards",
      "outputs": [
        {
          "internalType": "uint256",
          "name": "",
          "type": "uint256"
        }
      ],
      "stateMutability": "view",
      "type": "function"
    },
    {
      "inputs": [],
      "name": "claimRewards",
      "outputs": [],
      "stateMutability": "nonpayable",
      "type": "function"
    },
    {
      "inputs": [
        {
          "internalType": "address",
          "name": "_user",
          "type": "address"
        }
      ],
      "name": "getStakedTokens",
      "outputs": [
        {
          "components": [
            {
              "internalType": "address",
              "name": "staker",
              "type": "address"
            },
            {
              "internalType": "uint256",
              "name": "tokenId",
              "type": "uint256"
            }
          ],
          "internalType": "struct REYieldStaking.StakedToken[]",
          "name": "",
          "type": "tuple[]"
        }
      ],
      "stateMutability": "view",
      "type": "function"
    },
    {
      "inputs": [],
      "name": "nftCollection",
      "outputs": [
        {
          "internalType": "contract IERC721",
          "name": "",
          "type": "address"
        }
      ],
      "stateMutability": "view",
      "type": "function"
    },
    {
      "inputs": [],
      "name": "owner",
      "outputs": [
        {
          "internalType": "address",
          "name": "",
          "type": "address"
        }
      ],
      "stateMutability": "view",
      "type": "function"
    },
    {
      "inputs": [],
      "name": "renounceOwnership",
      "outputs": [],
      "stateMutability": "nonpayable",
      "type": "function"
    },
    {
      "inputs": [],
      "name": "rewardsToken",
      "outputs": [
        {
          "internalType": "contract IERC20",
          "name": "",
          "type": "address"
        }
      ],
      "stateMutability": "view",
      "type": "function"
    },
    {
      "inputs": [
        {
          "internalType": "uint256",
          "name": "_tokenId",
          "type": "uint256"
        }
      ],
      "name": "stake",
      "outputs": [],
      "stateMutability": "nonpayable",
      "type": "function"
    },
    {
      "inputs": [
        {
          "internalType": "uint256",
          "name": "",
          "type": "uint256"
        }
      ],
      "name": "stakerAddress",
      "outputs": [
        {
          "internalType": "address",
          "name": "",
          "type": "address"
        }
      ],
      "stateMutability": "view",
      "type": "function"
    },
    {
      "inputs": [
        {
          "internalType": "address",
          "name": "",
          "type": "address"
        }
      ],
      "name": "stakers",
      "outputs": [
        {
          "internalType": "uint256",
          "name": "amountStaked",
          "type": "uint256"
        },
        {
          "internalType": "uint256",
          "name": "timeOfLastUpdate",
          "type": "uint256"
        },
        {
          "internalType": "uint256",
          "name": "unclaimedRewards",
          "type": "uint256"
        }
      ],
      "stateMutability": "view",
      "type": "function"
    },
    {
      "inputs": [
        {
          "internalType": "address",
          "name": "newOwner",
          "type": "address"
        }
      ],
      "name": "transferOwnership",
      "outputs": [],
      "stateMutability": "nonpayable",
      "type": "function"
    },
    {
      "inputs": [],
      "name": "updateRewardsPerHour",
      "outputs": [],
      "stateMutability": "nonpayable",
      "type": "function"
    },
    {
      "inputs": [
        {
          "internalType": "contract IERC20",
          "name": "_rewardsToken",
          "type": "address"
        }
      ],
      "name": "updateRewardsToken",
      "outputs": [],
      "stateMutability": "nonpayable",
      "type": "function"
    },
    {
      "inputs": [
        {
          "internalType": "uint256",
          "name": "_tokenId",
          "type": "uint256"
        }
      ],
      "name": "withdraw",
      "outputs": [],
      "stateMutability": "nonpayable",
      "type": "function"
    }
  ],
  "bytecode": "0x60a060405261271060035560006004553480156200001c57600080fd5b5060405162002a7638038062002a768339818101604052810190620000429190620001e6565b60016000819055506200006a6200005e620000ea60201b60201c565b620000f260201b60201c565b8173ffffffffffffffffffffffffffffffffffffffff1660808173ffffffffffffffffffffffffffffffffffffffff1660601b8152505080600260006101000a81548173ffffffffffffffffffffffffffffffffffffffff021916908373ffffffffffffffffffffffffffffffffffffffff1602179055505050620002b7565b600033905090565b6000600160009054906101000a900473ffffffffffffffffffffffffffffffffffffffff16905081600160006101000a81548173ffffffffffffffffffffffffffffffffffffffff021916908373ffffffffffffffffffffffffffffffffffffffff1602179055508173ffffffffffffffffffffffffffffffffffffffff168173ffffffffffffffffffffffffffffffffffffffff167f8be0079c531659141344cd1fd0a4f28419497f9722a3daafe3b4186f6b6457e060405160405180910390a35050565b600081519050620001c98162000283565b92915050565b600081519050620001e0816200029d565b92915050565b60008060408385031215620001fa57600080fd5b60006200020a85828601620001cf565b92505060206200021d85828601620001b8565b9150509250929050565b6000620002348262000263565b9050919050565b6000620002488262000227565b9050919050565b60006200025c8262000227565b9050919050565b600073ffffffffffffffffffffffffffffffffffffffff82169050919050565b6200028e816200023b565b81146200029a57600080fd5b50565b620002a8816200024f565b8114620002b457600080fd5b50565b60805160601c61278b620002eb600039600081816107cf01528181610f470152818161111e015261121d015261278b6000f3fe608060405234801561001057600080fd5b50600436106100ea5760003560e01c80639168ae721161008c578063d1af0c7d11610066578063d1af0c7d14610213578063ed80c13414610231578063f2fde38b1461024d578063f854a27f14610269576100ea565b80639168ae721461019557806394067045146101c7578063a694fc3a146101f7576100ea565b806363c28db1116100c857806363c28db11461011f5780636588103b1461014f578063715018a61461016d5780638da5cb5b14610177576100ea565b80632e1a7d4d146100ef578063372500ab1461010b5780635591c85a14610115575b600080fd5b61010960048036038101906101049190611c6b565b610299565b005b6101136108cd565b005b61011d610a49565b005b61013960048036038101906101349190611bc7565b610b21565b6040516101469190611ff3565b60405180910390f35b610157610f45565b6040516101649190612030565b60405180910390f35b610175610f69565b005b61017f610f7d565b60405161018c9190611f78565b60405180910390f35b6101af60048036038101906101aa9190611bc7565b610fa7565b6040516101be939291906121a8565b60405180910390f35b6101e160048036038101906101dc9190611c6b565b610fd1565b6040516101ee9190611f78565b60405180910390f35b610211600480360381019061020c9190611c6b565b611004565b005b61021b6114b2565b6040516102289190612015565b60405180910390f35b61024b60048036038101906102469190611c42565b6114d8565b005b61026760048036038101906102629190611bc7565b611524565b005b610283600480360381019061027e9190611bc7565b6115a8565b604051610290919061218d565b60405180910390f35b600260005414156102df576040517f08c379a00000000000000000000000000000000000000000000000000000000081526004016102d69061216d565b60405180910390fd5b60026000819055506000600560003373ffffffffffffffffffffffffffffffffffffffff1673ffffffffffffffffffffffffffffffffffffffff168152602001908152602001600020600001541161036c576040517f08c379a0000000000000000000000000000000000000000000000000000000008152600401610363906120ad565b60405180910390fd5b3373ffffffffffffffffffffffffffffffffffffffff166006600083815260200190815260200160002060009054906101000a900473ffffffffffffffffffffffffffffffffffffffff1673ffffffffffffffffffffffffffffffffffffffff161461040d576040517f08c379a00000000000000000000000000000000000000000000000000000000081526004016104049061206d565b60405180910390fd5b60006104183361160c565b905080600560003373ffffffffffffffffffffffffffffffffffffffff1673ffffffffffffffffffffffffffffffffffffffff168152602001908152602001600020600301600082825461046c919061224a565b925050819055506000805b600560003373ffffffffffffffffffffffffffffffffffffffff1673ffffffffffffffffffffffffffffffffffffffff168152602001908152602001600020600101805490508110156106565783600560003373ffffffffffffffffffffffffffffffffffffffff1673ffffffffffffffffffffffffffffffffffffffff168152602001908152602001600020600101828154811061053f577f4e487b7100000000000000000000000000000000000000000000000000000000600052603260045260246000fd5b9060005260206000209060020201600101541480156106365750600073ffffffffffffffffffffffffffffffffffffffff16600560003373ffffffffffffffffffffffffffffffffffffffff1673ffffffffffffffffffffffffffffffffffffffff16815260200190815260200160002060010182815481106105eb577f4e487b7100000000000000000000000000000000000000000000000000000000600052603260045260246000fd5b906000526020600020906002020160000160009054906101000a900473ffffffffffffffffffffffffffffffffffffffff1673ffffffffffffffffffffffffffffffffffffffff1614155b1561064357809150610656565b808061064e9061245e565b915050610477565b506000600560003373ffffffffffffffffffffffffffffffffffffffff1673ffffffffffffffffffffffffffffffffffffffff16815260200190815260200160002060010182815481106106d3577f4e487b7100000000000000000000000000000000000000000000000000000000600052603260045260246000fd5b906000526020600020906002020160000160006101000a81548173ffffffffffffffffffffffffffffffffffffffff021916908373ffffffffffffffffffffffffffffffffffffffff160217905550600560003373ffffffffffffffffffffffffffffffffffffffff1673ffffffffffffffffffffffffffffffffffffffff168152602001908152602001600020600001600081548092919061077590612434565b919050555060006006600085815260200190815260200160002060006101000a81548173ffffffffffffffffffffffffffffffffffffffff021916908373ffffffffffffffffffffffffffffffffffffffff1602179055507f000000000000000000000000000000000000000000000000000000000000000073ffffffffffffffffffffffffffffffffffffffff166323b872dd3033866040518463ffffffff1660e01b815260040161082a93929190611f93565b600060405180830381600087803b15801561084457600080fd5b505af1158015610858573d6000803e3d6000fd5b5050505042600560003373ffffffffffffffffffffffffffffffffffffffff1673ffffffffffffffffffffffffffffffffffffffff1681526020019081526020016000206002018190555060016004546108b2919061232b565b6004819055506108c0610a49565b5050600160008190555050565b6000600560003373ffffffffffffffffffffffffffffffffffffffff1673ffffffffffffffffffffffffffffffffffffffff1681526020019081526020016000206003015461091b3361160c565b610925919061224a565b90506000811161096a576040517f08c379a00000000000000000000000000000000000000000000000000000000081526004016109619061210d565b60405180910390fd5b42600560003373ffffffffffffffffffffffffffffffffffffffff1673ffffffffffffffffffffffffffffffffffffffff168152602001908152602001600020600201819055506000600560003373ffffffffffffffffffffffffffffffffffffffff1673ffffffffffffffffffffffffffffffffffffffff16815260200190815260200160002060030181905550610a463382600260009054906101000a900473ffffffffffffffffffffffffffffffffffffffff1673ffffffffffffffffffffffffffffffffffffffff166116ca9092919063ffffffff16565b50565b6004546018601e600260009054906101000a900473ffffffffffffffffffffffffffffffffffffffff1673ffffffffffffffffffffffffffffffffffffffff166370a08231306040518263ffffffff1660e01b8152600401610aab9190611f78565b60206040518083038186803b158015610ac357600080fd5b505afa158015610ad7573d6000803e3d6000fd5b505050506040513d601f19601f82011682018060405250810190610afb9190611c94565b610b0591906122a0565b610b0f91906122a0565b610b1991906122a0565b600381905550565b60606000600560008473ffffffffffffffffffffffffffffffffffffffff1673ffffffffffffffffffffffffffffffffffffffff168152602001908152602001600020600001541115610ec2576000600560008473ffffffffffffffffffffffffffffffffffffffff1673ffffffffffffffffffffffffffffffffffffffff1681526020019081526020016000206000015467ffffffffffffffff811115610bf2577f4e487b7100000000000000000000000000000000000000000000000000000000600052604160045260246000fd5b604051908082528060200260200182016040528015610c2b57816020015b610c18611b19565b815260200190600190039081610c105790505b5090506000805b600560008673ffffffffffffffffffffffffffffffffffffffff1673ffffffffffffffffffffffffffffffffffffffff16815260200190815260200160002060010180549050811015610eb757600073ffffffffffffffffffffffffffffffffffffffff16600560008773ffffffffffffffffffffffffffffffffffffffff1673ffffffffffffffffffffffffffffffffffffffff1681526020019081526020016000206001018281548110610d11577f4e487b7100000000000000000000000000000000000000000000000000000000600052603260045260246000fd5b906000526020600020906002020160000160009054906101000a900473ffffffffffffffffffffffffffffffffffffffff1673ffffffffffffffffffffffffffffffffffffffff1614610ea457600560008673ffffffffffffffffffffffffffffffffffffffff1673ffffffffffffffffffffffffffffffffffffffff1681526020019081526020016000206001018181548110610dd8577f4e487b7100000000000000000000000000000000000000000000000000000000600052603260045260246000fd5b90600052602060002090600202016040518060400160405290816000820160009054906101000a900473ffffffffffffffffffffffffffffffffffffffff1673ffffffffffffffffffffffffffffffffffffffff1673ffffffffffffffffffffffffffffffffffffffff168152602001600182015481525050838381518110610e8a577f4e487b7100000000000000000000000000000000000000000000000000000000600052603260045260246000fd5b60200260200101819052508180610ea09061245e565b9250505b8080610eaf9061245e565b915050610c32565b508192505050610f40565b600067ffffffffffffffff811115610f03577f4e487b7100000000000000000000000000000000000000000000000000000000600052604160045260246000fd5b604051908082528060200260200182016040528015610f3c57816020015b610f29611b19565b815260200190600190039081610f215790505b5090505b919050565b7f000000000000000000000000000000000000000000000000000000000000000081565b610f71611750565b610f7b60006117ce565b565b6000600160009054906101000a900473ffffffffffffffffffffffffffffffffffffffff16905090565b60056020528060005260406000206000915090508060000154908060020154908060030154905083565b60066020528060005260406000206000915054906101000a900473ffffffffffffffffffffffffffffffffffffffff1681565b6002600054141561104a576040517f08c379a00000000000000000000000000000000000000000000000000000000081526004016110419061216d565b60405180910390fd5b60026000819055506000600560003373ffffffffffffffffffffffffffffffffffffffff1673ffffffffffffffffffffffffffffffffffffffff1681526020019081526020016000206000015411156111055760006110a83361160c565b905080600560003373ffffffffffffffffffffffffffffffffffffffff1673ffffffffffffffffffffffffffffffffffffffff16815260200190815260200160002060030160008282546110fc919061224a565b92505081905550505b3373ffffffffffffffffffffffffffffffffffffffff167f000000000000000000000000000000000000000000000000000000000000000073ffffffffffffffffffffffffffffffffffffffff16636352211e836040518263ffffffff1660e01b8152600401611175919061218d565b60206040518083038186803b15801561118d57600080fd5b505afa1580156111a1573d6000803e3d6000fd5b505050506040513d601f19601f820116820180604052508101906111c59190611bf0565b73ffffffffffffffffffffffffffffffffffffffff161461121b576040517f08c379a00000000000000000000000000000000000000000000000000000000081526004016112129061206d565b60405180910390fd5b7f000000000000000000000000000000000000000000000000000000000000000073ffffffffffffffffffffffffffffffffffffffff166323b872dd3330846040518463ffffffff1660e01b815260040161127893929190611f93565b600060405180830381600087803b15801561129257600080fd5b505af11580156112a6573d6000803e3d6000fd5b50505050600060405180604001604052803373ffffffffffffffffffffffffffffffffffffffff168152602001838152509050600560003373ffffffffffffffffffffffffffffffffffffffff1673ffffffffffffffffffffffffffffffffffffffff16815260200190815260200160002060010181908060018154018082558091505060019003906000526020600020906002020160009091909190915060008201518160000160006101000a81548173ffffffffffffffffffffffffffffffffffffffff021916908373ffffffffffffffffffffffffffffffffffffffff160217905550602082015181600101555050600560003373ffffffffffffffffffffffffffffffffffffffff1673ffffffffffffffffffffffffffffffffffffffff16815260200190815260200160002060000160008154809291906113eb9061245e565b9190505550336006600084815260200190815260200160002060006101000a81548173ffffffffffffffffffffffffffffffffffffffff021916908373ffffffffffffffffffffffffffffffffffffffff16021790555042600560003373ffffffffffffffffffffffffffffffffffffffff1673ffffffffffffffffffffffffffffffffffffffff168152602001908152602001600020600201819055506001600454611498919061224a565b6004819055506114a6610a49565b50600160008190555050565b600260009054906101000a900473ffffffffffffffffffffffffffffffffffffffff1681565b6114e0611750565b80600260006101000a81548173ffffffffffffffffffffffffffffffffffffffff021916908373ffffffffffffffffffffffffffffffffffffffff16021790555050565b61152c611750565b600073ffffffffffffffffffffffffffffffffffffffff168173ffffffffffffffffffffffffffffffffffffffff16141561159c576040517f08c379a00000000000000000000000000000000000000000000000000000000081526004016115939061208d565b60405180910390fd5b6115a5816117ce565b50565b600080600560008473ffffffffffffffffffffffffffffffffffffffff1673ffffffffffffffffffffffffffffffffffffffff168152602001908152602001600020600301546115f78461160c565b611601919061224a565b905080915050919050565b6000610e10600354600560008573ffffffffffffffffffffffffffffffffffffffff1673ffffffffffffffffffffffffffffffffffffffff16815260200190815260200160002060000154600560008673ffffffffffffffffffffffffffffffffffffffff1673ffffffffffffffffffffffffffffffffffffffff16815260200190815260200160002060020154426116a5919061232b565b6116af91906122d1565b6116b991906122d1565b6116c391906122a0565b9050919050565b61174b8363a9059cbb60e01b84846040516024016116e9929190611fca565b604051602081830303815290604052907bffffffffffffffffffffffffffffffffffffffffffffffffffffffff19166020820180517bffffffffffffffffffffffffffffffffffffffffffffffffffffffff8381831617835250505050611894565b505050565b61175861195b565b73ffffffffffffffffffffffffffffffffffffffff16611776610f7d565b73ffffffffffffffffffffffffffffffffffffffff16146117cc576040517f08c379a00000000000000000000000000000000000000000000000000000000081526004016117c3906120ed565b60405180910390fd5b565b6000600160009054906101000a900473ffffffffffffffffffffffffffffffffffffffff16905081600160006101000a81548173ffffffffffffffffffffffffffffffffffffffff021916908373ffffffffffffffffffffffffffffffffffffffff1602179055508173ffffffffffffffffffffffffffffffffffffffff168173ffffffffffffffffffffffffffffffffffffffff167f8be0079c531659141344cd1fd0a4f28419497f9722a3daafe3b4186f6b6457e060405160405180910390a35050565b60006118f6826040518060400160405280602081526020017f5361666545524332303a206c6f772d6c6576656c2063616c6c206661696c65648152508573ffffffffffffffffffffffffffffffffffffffff166119639092919063ffffffff16565b905060008151111561195657808060200190518101906119169190611c19565b611955576040517f08c379a000000000000000000000000000000000000000000000000000000000815260040161194c9061214d565b60405180910390fd5b5b505050565b600033905090565b6060611972848460008561197b565b90509392505050565b6060824710156119c0576040517f08c379a00000000000000000000000000000000000000000000000000000000081526004016119b7906120cd565b60405180910390fd5b6119c985611a8f565b611a08576040517f08c379a00000000000000000000000000000000000000000000000000000000081526004016119ff9061212d565b60405180910390fd5b6000808673ffffffffffffffffffffffffffffffffffffffff168587604051611a319190611f61565b60006040518083038185875af1925050503d8060008114611a6e576040519150601f19603f3d011682016040523d82523d6000602084013e611a73565b606091505b5091509150611a83828286611ab2565b92505050949350505050565b6000808273ffffffffffffffffffffffffffffffffffffffff163b119050919050565b60608315611ac257829050611b12565b600083511115611ad55782518084602001fd5b816040517f08c379a0000000000000000000000000000000000000000000000000000000008152600401611b09919061204b565b60405180910390fd5b9392505050565b6040518060400160405280600073ffffffffffffffffffffffffffffffffffffffff168152602001600081525090565b600081359050611b58816126f9565b92915050565b600081519050611b6d816126f9565b92915050565b600081519050611b8281612710565b92915050565b600081359050611b9781612727565b92915050565b600081359050611bac8161273e565b92915050565b600081519050611bc18161273e565b92915050565b600060208284031215611bd957600080fd5b6000611be784828501611b49565b91505092915050565b600060208284031215611c0257600080fd5b6000611c1084828501611b5e565b91505092915050565b600060208284031215611c2b57600080fd5b6000611c3984828501611b73565b91505092915050565b600060208284031215611c5457600080fd5b6000611c6284828501611b88565b91505092915050565b600060208284031215611c7d57600080fd5b6000611c8b84828501611b9d565b91505092915050565b600060208284031215611ca657600080fd5b6000611cb484828501611bb2565b91505092915050565b6000611cc98383611f14565b60408301905092915050565b611cde8161235f565b82525050565b611ced8161235f565b82525050565b6000611cfe826121ef565b611d08818561221d565b9350611d13836121df565b8060005b83811015611d44578151611d2b8882611cbd565b9750611d3683612210565b925050600181019050611d17565b5085935050505092915050565b6000611d5c826121fa565b611d66818561222e565b9350611d76818560208601612401565b80840191505092915050565b611d8b816123b9565b82525050565b611d9a816123dd565b82525050565b6000611dab82612205565b611db58185612239565b9350611dc5818560208601612401565b611dce81612505565b840191505092915050565b6000611de6601983612239565b9150611df182612516565b602082019050919050565b6000611e09602683612239565b9150611e148261253f565b604082019050919050565b6000611e2c601983612239565b9150611e378261258e565b602082019050919050565b6000611e4f602683612239565b9150611e5a826125b7565b604082019050919050565b6000611e72602083612239565b9150611e7d82612606565b602082019050919050565b6000611e95601c83612239565b9150611ea08261262f565b602082019050919050565b6000611eb8601d83612239565b9150611ec382612658565b602082019050919050565b6000611edb602a83612239565b9150611ee682612681565b604082019050919050565b6000611efe601f83612239565b9150611f09826126d0565b602082019050919050565b604082016000820151611f2a6000850182611cd5565b506020820151611f3d6020850182611f43565b50505050565b611f4c816123af565b82525050565b611f5b816123af565b82525050565b6000611f6d8284611d51565b915081905092915050565b6000602082019050611f8d6000830184611ce4565b92915050565b6000606082019050611fa86000830186611ce4565b611fb56020830185611ce4565b611fc26040830184611f52565b949350505050565b6000604082019050611fdf6000830185611ce4565b611fec6020830184611f52565b9392505050565b6000602082019050818103600083015261200d8184611cf3565b905092915050565b600060208201905061202a6000830184611d82565b92915050565b60006020820190506120456000830184611d91565b92915050565b600060208201905081810360008301526120658184611da0565b905092915050565b6000602082019050818103600083015261208681611dd9565b9050919050565b600060208201905081810360008301526120a681611dfc565b9050919050565b600060208201905081810360008301526120c681611e1f565b9050919050565b600060208201905081810360008301526120e681611e42565b9050919050565b6000602082019050818103600083015261210681611e65565b9050919050565b6000602082019050818103600083015261212681611e88565b9050919050565b6000602082019050818103600083015261214681611eab565b9050919050565b6000602082019050818103600083015261216681611ece565b9050919050565b6000602082019050818103600083015261218681611ef1565b9050919050565b60006020820190506121a26000830184611f52565b92915050565b60006060820190506121bd6000830186611f52565b6121ca6020830185611f52565b6121d76040830184611f52565b949350505050565b6000819050602082019050919050565b600081519050919050565b600081519050919050565b600081519050919050565b6000602082019050919050565b600082825260208201905092915050565b600081905092915050565b600082825260208201905092915050565b6000612255826123af565b9150612260836123af565b9250827fffffffffffffffffffffffffffffffffffffffffffffffffffffffffffffffff03821115612295576122946124a7565b5b828201905092915050565b60006122ab826123af565b91506122b6836123af565b9250826122c6576122c56124d6565b5b828204905092915050565b60006122dc826123af565b91506122e7836123af565b9250817fffffffffffffffffffffffffffffffffffffffffffffffffffffffffffffffff04831182151516156123205761231f6124a7565b5b828202905092915050565b6000612336826123af565b9150612341836123af565b925082821015612354576123536124a7565b5b828203905092915050565b600061236a8261238f565b9050919050565b60008115159050919050565b60006123888261235f565b9050919050565b600073ffffffffffffffffffffffffffffffffffffffff82169050919050565b6000819050919050565b60006123c4826123cb565b9050919050565b60006123d68261238f565b9050919050565b60006123e8826123ef565b9050919050565b60006123fa8261238f565b9050919050565b60005b8381101561241f578082015181840152602081019050612404565b8381111561242e576000848401525b50505050565b600061243f826123af565b91506000821415612453576124526124a7565b5b600182039050919050565b6000612469826123af565b91507fffffffffffffffffffffffffffffffffffffffffffffffffffffffffffffffff82141561249c5761249b6124a7565b5b600182019050919050565b7f4e487b7100000000000000000000000000000000000000000000000000000000600052601160045260246000fd5b7f4e487b7100000000000000000000000000000000000000000000000000000000600052601260045260246000fd5b6000601f19601f8301169050919050565b7f596f7520646f6e2774206f776e207468697320746f6b656e2100000000000000600082015250565b7f4f776e61626c653a206e6577206f776e657220697320746865207a65726f206160008201527f6464726573730000000000000000000000000000000000000000000000000000602082015250565b7f596f752068617665206e6f20746f6b656e73207374616b656400000000000000600082015250565b7f416464726573733a20696e73756666696369656e742062616c616e636520666f60008201527f722063616c6c0000000000000000000000000000000000000000000000000000602082015250565b7f4f776e61626c653a2063616c6c6572206973206e6f7420746865206f776e6572600082015250565b7f596f752068617665206e6f207265776172647320746f20636c61696d00000000600082015250565b7f416464726573733a2063616c6c20746f206e6f6e2d636f6e7472616374000000600082015250565b7f5361666545524332303a204552433230206f7065726174696f6e20646964206e60008201527f6f74207375636365656400000000000000000000000000000000000000000000602082015250565b7f5265656e7472616e637947756172643a207265656e7472616e742063616c6c00600082015250565b6127028161235f565b811461270d57600080fd5b50565b61271981612371565b811461272457600080fd5b50565b6127308161237d565b811461273b57600080fd5b50565b612747816123af565b811461275257600080fd5b5056fea264697066735822122045a11abba60769acb3d476481ffe32f2dbc56781b519cee8b032358b70711fdd64736f6c63430008040033",
  "linkReferences": {},
  "deployedLinkReferences": {}
}